:100000000C9434000C9449000C9449000C94490061
:100010000C9449000C9449000C9449000C9449003C
:100020000C9449000C9449000C9449000C9449002C
:100030000C9449000C9449000C9449000C9449001C
:100040000C9449000C9449000C9449000C9449000C
:100050000C9449000C9449000C9449000C944900FC
:100060000C9449000C94490011241FBECFEFD8E036
:10007000DEBFCDBF14E0A0E0B1E0E4E5FFE002C0E8
:1000800005900D92A230B107D9F70E945B060C943F
:10009000A8070C9400002FEF3FEFFC013183208371
:1000A0000895AF92BF92CF92DF92EF92FF920F939B
:1000B0001F93CF93DF93D82FC92F8B015A0189EE5D
:1000C000E82E83E0F82E6A0124E4C21A2DEFD20A4A
:1000D0000E940A07B7010E949606F60160817181AD
:1000E000A50120E030E02617370794F744575F4F0B
:1000F000FA01EA56F1090190F081E02D8E179F0771
:10010000D4F5F801808191818217930709F3318337
:1001100020838CE8829FF001839FF00D1124EA0D6B
:10012000FB1D2DB73EB72C5831090FB6F8943EBFD2
:100130000FBE2DBFADB7BEB7119601900D928A9537
:10014000E1F78D2F9C2F0E94DB018DB79EB784575E
:100150009F4F0FB6F8949EBF0FBE8DBF8D2F9C2F63
:10016000DF91CF911F910F91FF90EF90DF90CF9093
:10017000BF90AF9008952F5F3F4FB5CFEF92FF92A2
:100180000F931F93CF93DF93CDB7DEB7C756D10937
:100190000FB6F894DEBF0FBECDBF7B010E940A07E9
:1001A0008C01B701CE0101960E942602CE01019674
:1001B0000E941506BC01C8010E949606C959DF4F6E
:1001C0000FB6F894DEBF0FBECDBFDF91CF911F9168
:1001D0000F91FF90EF900895062E000C770BFC0115
:1001E000718360830895FC0180819181089522ECE0
:1001F00032E0E4E0F1E0DC0101900D92215030406A
:10020000D9F70895FC0110820C943507CF93DF9342
:10021000EC0182960E94DC05CE0187579F4F0E9419
:1002200050066EED73E0CE01DF91CF910C94020188
:10023000FC0171A360A30895AF92BF92CF92DF92A9
:10024000EF92FF920F931F93CF93DF93CDB7DEB75B
:10025000C954D1090FB6F894DEBF0FBECDBF5C0103
:100260008B016B01E12CF12C20E030E080E090E08C
:10027000F80101900020E9F73197E01BF10BEE1631
:10028000FF0690F0C75BDF4F0FB6F894DEBF0FBEDE
:10029000CDBFDF91CF911F910F91FF90EF90DF9035
:1002A000CF90BF90AF900895F60141916F014C320D
:1002B000D1F02115310559F02130310589F02F5F3A
:1002C0003F4F80E090E0FFEFEF1AFF0AD1CFE3E26B
:1002D000F0E0EC0FFD1FE80FF91F40830196F3CF0C
:1002E000E3E4F0E0F6CF2115310541F0213031058E
:1002F00071F02F5F3F4F80E090E0E5CFFE01E80F07
:10030000F91F13A280E090E021E030E0DCCFFE0195
:10031000ED5BFF4FE80FF91F1082AE014D5B5F4FA1
:10032000BE016D5D7F4FCE0101960E94C5058DB760
:100330009EB782970FB6F8949EBF0FBE8DBFADB724
:10034000BEB7119682E2FE01319601900D928A9518
:10035000E1F7C50182960E94F0050FB6F894DEBF62
:100360000FBECDBF20E030E0C6CFCF92DF92EF923C
:10037000FF920F931F93CF93DF93EC016B017A01F0
:10038000890182960E94DC05CE0187579F4F0E940B
:100390005006B601CE010E940201E8A2F9A2B801FE
:1003A000CE01DF91CF911F910F91FF90EF90DF90E1
:1003B000CF900C941C01EF92FF920F931F93CF9359
:1003C000DF93CDB7DEB728970FB6F894DEBF0FBE28
:1003D000CDBF8C0182960E94DC05780189E8E80E89
:1003E000F11CC7010E945006BE016F5E7F4FC8011D
:1003F0000E94020189A99AA9F80191A380A3BE01D4
:100400006B5C7F4FC8010E941C01BE016B567F4F81
:10041000CE0101960E94560688E0FE013196D70172
:1004200001900D928A95E1F728960FB6F894DEBFF9
:100430000FBECDBFDF91CF911F910F91FF90EF9035
:1004400008950895FC0180A191A1089527E6FB017C
:10045000B296DC0101900D922A95E1F70895CF93B1
:10046000DF93CDB7DEB728970FB6F894DEBF0FBE87
:10047000CDBFFC01E757FF4F88E0DE0111960190E8
:100480000D928A95E1F729813A814B815C816D81DA
:100490007E818F81988528960FB6F894DEBF0FBEB7
:1004A000CDBFDF91CF91089560FF11C05C9A61FFCD
:1004B00010C05D9A62FF0FC05E9A63FF0EC05F9A24
:1004C000599A85E08A95F1F70000599808955C984B
:1004D000EECF5D98EFCF5E98F0CF5F98F1CF1F938E
:1004E000CF93DF93D82FC92F162F62956F700E947C
:1004F0005402612F8D2F9C2F0E94540287EC90E0B4
:100500000197F1F700C00000DF91CF911F9108958E
:100510004295440F440F407C6058640F0C946F0266
:1005200061E00E946F028FE39FE10197F1F700C045
:100530000000089562E00E946F028FE39FE101973F
:10054000F1F700C0000008951F93CF93DF93D82FD9
:10055000C92F162F62956F700E945402612F8D2F44
:100560009C2FDF91CF911F910C945402589A0E94B6
:10057000A40258980895EF92FF920F931F93CF9380
:10058000DF93182F092FEB01E12CF12C89918111B8
:1005900007C0DF91CF911F910F91FF90EF900895C9
:1005A00080E1E816F10429F460EC812F902F0E947D
:1005B0006F02FE016291812F902F0E94B6028FEF91
:1005C000E81AF80AE3CFEF92FF920F931F93CF93AD
:1005D000DF93D82FC92F7B010AE010E0B7018D2FE0
:1005E0009C2F0E94BB022FEF84E39CE021508040AF
:1005F0009040E1F700C000008D2F9C2F0E949002D8
:100600002FEF84E39CE0215080409040E1F700C050
:1006100000000150104011F7DF91CF911F910F9111
:10062000FF90EF9008956F927F928F929F92AF927A
:10063000BF92CF92DF92EF92FF920F931F93CF93CF
:10064000DF93CDB7DEB7A1970FB6F894DEBF0FBE2C
:10065000CDBF182F092F5B01CE0101967C0181E2ED
:10066000F70111928A95E9F7612C712CC42ED12CD7
:100670004601F1E08F1A91086C147D0480F0FFEFC1
:1006800023E284EFF15020408040E1F700C00000F9
:10069000812C912C37016C0C7D1C57014DC0862D8F
:1006A0002FEF621A720AD701982F8150F401E91BCB
:1006B000F10997FDF395EA0DFB1D90819D938F3F06
:1006C00099F7812F902F0E949002B701812F902FD0
:1006D0000E94BB028FEF91EEE4E081509040E04039
:1006E000E1F700C00000C8CF8981811118C0812FB7
:1006F000902FA1960FB6F894DEBF0FBECDBFDF914D
:10070000CF911F910F91FF90EF90DF90CF90BF900E
:10071000AF909F908F907F906F900C949002F50116
:10072000818181935F01812F902F0E949002B701F8
:10073000812F902F0E94BB02A614B704A9F6FFEFE9
:1007400021EE84E0F15020408040E1F700C000003D
:100750009FEF891A990AC814D90408F09ECFA19670
:100760000FB6F894DEBF0FBECDBFDF91CF911F91C2
:100770000F91FF90EF90DF90CF90BF90AF909F9040
:100780008F907F906F900895EF92FF920F931F9339
:10079000CF93DF938C017A01660F660F660F687343
:1007A00060640E946F02E701C70108967C016991AD
:1007B000C8010E94B602CE15DF05C9F7DF91CF91BF
:1007C0001F910F91FF90EF9008950F931F93CF9378
:1007D000DF93CDB7DEB7A0970FB6F894DEBF0FBE9C
:1007E000CDBF8C01509A519A549A559A569A579A5D
:1007F0008FE59AEE0197F1F700C0000063E0C801B1
:100800000E9454028FE19EE40197F1F700C00000BE
:1008100063E0C8010E9454028FE891E00197F1F76C
:1008200000C0000063E0C8010E94540262E0C801F9
:100830000E94540268E2C8010E946F026CE0C80185
:100840000E946F02C8010E94900266E0C8010E94E7
:100850006F0295E89A95F1F7000088E0E6ECF3E086
:10086000DE01599601900D928A95E1F7AE01475E3F
:100870005F4F60E0C8010E94C40388E0E6EEF3E049
:10088000DE01519601900D928A95E1F7AE014F5E1F
:100890005F4F61E0C8010E94C40388E0EEECF3E022
:1008A000DE01199601900D928A95E1F7AE01475F3E
:1008B0005F4F62E0C8010E94C40388E0E6EDF3E008
:1008C000DE01119601900D928A95E1F7AE014F5F1E
:1008D0005F4F63E0C8010E94C403A0960FB6F8946E
:1008E000DEBF0FBECDBFDF91CF911F910F91089555
:1008F000FC0111821082138212820C94E5039F92F4
:10090000AF92BF92CF92DF92EF92FF920F931F931D
:10091000CF93DF93CDB7DEB728970FB6F894DEBF3D
:100920000FBECDBF982E092F6B01CB010E942F0265
:1009300029833A834B835C836D837E838F8398877F
:10094000CE0101960E945A065C01C6010E94210256
:100950007C01A50160E0892D902F0E94C403892DA0
:10096000902F0E94900260E0892D902F0E94B60285
:10097000F70101900020E9F73197CE2ECE1810E054
:100980001C1120C060E0892D902F0E94B602FFEF5D
:100990002BE782E9F15020408040E1F700C00000E1
:1009A00028960FB6F894DEBF0FBECDBFDF91CF9172
:1009B0001F910F91FF90EF90DF90CF90BF90AF907D
:1009C0009F9008951032F1F21F3029F460EC892DC8
:1009D000902F0E946F02F70161917F01892D902F66
:1009E0000E94B6021F5FCCCF8F929F92AF92BF92B0
:1009F000CF92DF92EF92FF920F931F93CF93DF93EB
:100A0000CDB7DEB7CE5CD1090FB6F894DEBF0FBE0E
:100A1000CDBF8C017B016A010E949002B701C80121
:100A20000E947F04C8010E949002B701CE01019686
:100A30000E942602B601CE0101960E940B060E947A
:100A4000D8055C010197A9F182E0A816B104B9F0BC
:100A5000AB2809F458C0C253DF4F0FB6F894DEBF7D
:100A60000FBECDBFDF91CF911F910F91FF90EF90FF
:100A7000DF90CF90BF90AF909F908F900895B70177
:100A8000CE0101960E942602B601CE0101960E9477
:100A90000B060E94D705BC01C8010E94BB029FEF54
:100AA00023E284EF915020408040E1F700C0000035
:100AB000D2CFB701CE0101960E942602B601CE0127
:100AC00001960E940B060E94D7054C01FC01019083
:100AD0000020E9F73197CF01881999094C01B70136
:100AE000CE0188599F4F0E942602B601CE01885937
:100AF0009F4F0E940B060E94D705BC01482DC801DC
:100B00000E941303A8CFB701CE0101960E942602CE
:100B1000B601CE0101960E940B060E94D705BC01CA
:100B2000C8010E94E30297CFFC0110820895FC01E6
:100B300010820C9435070F931F93CF93DF93EC0132
:100B40008B016FEE73E0C8010E942C07892B29F4FA
:100B500081E090E099A388A309C066EF73E0C80123
:100B60000E942C07892B39F419A218A2DF91CF918A
:100B70001F910F9108956CEF73E0C8010E942C073C
:100B8000892BA1F782E090E0E5CF0F931F93CF93DD
:100B9000DF93D82FC92F8A010E949705B8018D2FA6
:100BA0009C2FDF91CF911F910F910C949B0508957D
:100BB000FC0180A191A10895CF93DF93EC010E94E5
:100BC0009405CE0182960E949405CE018C5B9F4FC6
:100BD0000E949405CA59DF4F1882DF91CF91089582
:100BE000CF93DF93CDB7DEB7DC01FC01EA59FF4FAD
:100BF000808191E0980F908392E28902A00DB11D4F
:100C0000112482E2FE01359601900D928A95E1F75A
:100C1000DF91CF91089542E2469F9001479F300DAA
:100C20001124820F931F08950895FC01EA59FF4F84
:100C30008081082E000C990B0895CF93C0917C0001
:100C400080917C00816080937C0080917A00876035
:100C500080937A0080917A00806880937A008091F6
:100C60007A00806480937A0080917A0086FDFCCFC0
:100C70009091780080917A00806480937A008091CE
:100C80007A0086FDFCCF809178000E940F0780914A
:100C90007A008F7780937A00C0937C00CF9108957B
:100CA00028E0FC0111922A95E9F7089548E050E008
:100CB0000C941A070895CDB7DEB7C955D3400FB6C7
:100CC000F894DEBF0FBECDBF8E010C5A1C4FC80179
:100CD0000E947804C8010E94E503C8010E949002A6
:100CE000CE0101966C010E94F7007E0198EAE91A94
:100CF0009CEFF90AC7010E944B000E941D06580193
:100D00008701A601B801CE018D539D4F0E9451006D
:100D1000BE016D537D4FC8010E94BE00AC01BE01F3
:100D20006D537D4FC5010E94F404EBCF97FB072E56
:100D300016F4009407D077FD09D00E94AA0607FC9C
:100D400005D03EF4909581959F4F089570956195DB
:100D50007F4F0895AA1BBB1B51E107C0AA1FBB1FF1
:100D6000A617B70710F0A61BB70B881F991F5A9537
:100D7000A9F780959095BC01CD0108958F929F921F
:100D8000AF92BF92CF92DF92EF92FF92CF93DF9319
:100D9000EC01688179818A819B81611571058105EA
:100DA000910521F464E279ED8BE597E02DE133EFD5
:100DB00041E050E00E94450749015A019B01AC0106
:100DC000A7EAB1E40E9464076B017C01ACEEB4EFCA
:100DD000A50194010E947207DC01CB018C0D9D1DC1
:100DE000AE1DBF1DB7FF03C00197A109B04888839E
:100DF0009983AA83BB839F77DF91CF91FF90EF9078
:100E0000DF90CF90BF90AF909F908F9008950E94F9
:100E1000BE06089580E091E00E94BE060895A0E01D
:100E2000B0E08093000190930101A0930201B09380
:100E3000030108956817790768F4FB01DC01E40FEA
:100E4000F51FA40FB51F02C002900E9241505040F2
:100E5000D8F708950C943C07FB01DC018D910190BB
:100E600080190110D9F3990B0895FB01DC01019061
:100E70000D920020E1F70895FB01DC0102C0019012
:100E80000D9241505040D8F70895052E97FB1EF45F
:100E900000940E945C0757FD07D00E94770707FC6B
:100EA00003D04EF40C945C075095409530952195F5
:100EB0003F4F4F4F5F4F0895909580957095619586
:100EC0007F4F8F4F9F4F08950E949907A59F900DC8
:100ED000B49F900DA49F800D911D11240895B7FF1C
:100EE0000C9464070E946407821B930B0895A1E28F
:100EF0001A2EAA1BBB1BFD010DC0AA1FBB1FEE1F94
:100F0000FF1FA217B307E407F50720F0A21BB30BDE
:100F1000E40BF50B661F771F881F991F1A9469F75A
:100F200060957095809590959B01AC01BD01CF01B6
:100F30000895A29FB001B39FC001A39F700D811DB2
:100F40001124911DB29F700D811D1124911D0895D2
:040F5000F894FFCF43
:100F54000100000048454445524C4947452048415A
:100F6400525259532042494C415220414200000000
:100F7400000000008813580142555920594F55521A
:100F8400204341522046524F4D204841525259531A
:100F94002C7363726F6C6C2C4120474F4F44204478
:100FA40045414C2028464F52204841525259292C41
:100FB400706C61696E2C47495645204D4520594F48
:100FC4005552204D4F4E41592C626C696E6B2C006A
:100FD40000000000000000000A1F101F011F0A008B
:100FE4004752414D4D59204455434B2753205049B6
:100FF40045532041420000000000000000000000B2
:10100400B80B2702425559205049452046524F4DAE
:10101400204752414D4D59204455434B2C73637224
:101024006F6C6C2C4D414B494E472050454F504CF2
:101034004520464C4F41542053494E4345203139B5
:1010440036342C706C61696E2C00000000000000C6
:10105400000000000000000000000000000000008C
:101064000000000004120912001F110E50455454D0
:10107400455227532048414E44594D414E20414248
:10108400000000000000000000000000DC058F02EA
:101094004C45542042455454455220444F20544812
:1010A40045204255494C44494E472C7363726F6C3A
:1010B4006C2C4E4F572054415846524545212043ED
:1010C400414C4C2050455454455220544F444159AE
:1010D4002C706C61696E2C000000000000000000A0
:1010E40000000000000000000000000000000000FC
:1010F40000010F1504040404474F4F46592044458A
:1011040054454354495645204147454E435920418F
:101114004200000000000000A00FA3034D595354E7
:1011240045524945533F2043414C4C20474F4F467D
:1011340059212C706C61696E2C474F4F4659204BD6
:101144004952522054484520424946462C706C610D
:10115400696E2C0000000000000000000000000088
:10116400000000000000000000000000000000007B
:101174000000000000000000000000000E1111112A
:101184000E040201435550455241445300000000EF
:10119400000000000000000000000000000000004B
:1011A40000000000E803E8034C4F4F4B494E472032
:1011B400544F204245205345454E3F2043414C4C1B
:1011C400205553212C7363726F6C6C2C000000004B
:1011D400000000000000000000000000000000000B
:1011E40000000000000000000000000000000000FB
:1011F40000000000000000000000000000000000EB
:1012040000000000000000001D101D001705170558
:101214000500A438000004000E010F110F00000C9B
:101224000A090A0C000000060A120A060000556E9C
:101234006B6F776E0A001F110A04040A111F0073F2
:1012440063726F6C6C00626C696E6B00706C6169C8
:021254006E002A
:00000001FF
