:100000000C9434000C9449000C9449000C94490061
:100010000C9449000C9449000C9449000C9449003C
:100020000C9449000C9449000C9449000C9449002C
:100030000C9449000C9449000C9449000C9449001C
:100040000C9449000C9449000C9449000C9449000C
:100050000C9449000C9449000C9449000C944900FC
:100060000C9449000C94490011241FBECFEFD8E036
:10007000DEBFCDBF13E0A0E0B1E0ECE7FDE002C0E1
:1000800005900D92AA3DB107D9F70E947E050C9408
:10009000BC060C9400002FEF3FEFFC01318320835E
:1000A0000895CF92DF92EF92FF920F931F93CF9319
:1000B000DF938C01EB0189EEE82E83E0F82E6B01D3
:1000C0008CE6C81A8DEFD80A0E943906B7010E9443
:1000D000C505BC01F601408151819E0180E090E0A0
:1000E000841795078CF72C573F4FF901E256F10919
:1000F0000190F081E02D6E177F077CF4F8012081DC
:1001000031812817390701F3DF91CF911F910F91AA
:10011000FF90EF90DF90CF9008950196E1CFCF92BE
:10012000DF92EF92FF920F931F93CF93DF93CDB7A0
:10013000DEB7C756D1090FB6F894DEBF0FBECDBFEC
:100140008C017A010E9439066C01B701CE0101963B
:100150000E943802CE0101960E944305BC01C601EF
:100160000E94C5056C01B701CE0101960E943802BC
:10017000B601CE0101960E943905FC0182E2D80148
:1001800001900D928A95E1F7C801C959DF4F0FB66A
:10019000F894DEBF0FBECDBFDF91CF911F910F91BD
:1001A000FF90EF90DF90CF900895AF92BF92CF92E3
:1001B000DF92EF92FF920F931F93CF93DF93CDB710
:1001C000DEB7C958D1090FB6F894DEBF0FBECDBF58
:1001D0007C016B018A01BA01C6010E945100F6013F
:1001E0009183808324E8289FF001299FF00D11243A
:1001F000E00FF11F8DB79EB7845891090FB6F894A0
:100200009EBF0FBE8DBFADB7BEB7119684E80190FB
:100210000D928A95E1F7CE0101960E9413020FB666
:10022000F894DEBF0FBECDBFAE014F5F5F4FB6018A
:10023000C7010E948F00C701C757DF4F0FB6F89460
:10024000DEBF0FBECDBFDF91CF911F910F91FF9009
:10025000EF90DF90CF90BF90AF900895062E000CE6
:10026000770BFC01718360830895FC01808191818B
:1002700008952AE932E0E4E0F1E0DC0101900D921A
:1002800021503040D9F70895FC0110820C94520699
:10029000CF93DF93EC0182960E940A0566EB73E030
:1002A000CE01DF91CF910C944401FC0171A360A3B6
:1002B0000895AF92BF92CF92DF92EF92FF920F9389
:1002C0001F93CF93DF93CDB7DEB7C954D1090FB6D3
:1002D000F894DEBF0FBECDBF5C018B016B01E12C3A
:1002E000F12C20E030E080E090E0F8010190002067
:1002F000E9F73197E01BF10BEE16FF0690F0C75BB4
:10030000DF4F0FB6F894DEBF0FBECDBFDF91CF91A8
:100310001F910F91FF90EF90DF90CF90BF90AF9023
:100320000895F60141916F014C32D1F0211531054C
:1003300059F02130310589F02F5F3F4F80E090E088
:10034000FFEFEF1AFF0AD1CFE3E2F0E0EC0FFD1F61
:10035000E80FF91F40830196F3CFE3E4F0E0F6CF16
:100360002115310541F02130310571F02F5F3F4FEC
:1003700080E090E0E5CFFE01E80FF91F13A280E0D6
:1003800090E021E030E0DCCFFE01ED5BFF4FE80FB5
:10039000F91F1082AE014D5B5F4FBE016D5D7F4F57
:1003A000CE0101960E94F3048DB79EB782970FB6D7
:1003B000F8949EBF0FBE8DBFADB7BEB7119682E257
:1003C000FE01319601900D928A95E1F7C501829662
:1003D0000E941E050FB6F894DEBF0FBECDBF20E011
:1003E00030E0C6CFCF92DF92EF92FF920F931F9330
:1003F000CF93DF93EC016B017A01890182960E9411
:100400000A05B601CE010E944401E8A2F9A2B80192
:10041000CE01DF91CF911F910F91FF90EF90DF9070
:10042000CF900C9459010F931F93CF93DF93CDB7C7
:10043000DEB78C0182960E940A05BE01695F7F4F7C
:10044000C8010E9444018FA198A5F80191A380A33F
:10045000BE01655D7F4FC8010E945901DF91CF91B8
:100460001F910F9108950895FC0180A191A1089515
:1004700027E6FB01B296DC0101900D922A95E1F787
:10048000089560FF11C05C9A61FF10C05D9A62FF21
:100490000FC05E9A63FF0EC05F9A599A85E08A95F5
:1004A000F1F70000599808955C98EECF5D98EFCF72
:1004B0005E98F0CF5F98F1CF1F93CF93DF93D82F43
:1004C000C92F162F62956F700E944102612F8D2FE8
:1004D0009C2F0E94410287EC90E00197F1F700C049
:1004E0000000DF91CF911F9108954295440F440F72
:1004F000407C6058640F0C945C0261E00E945C02D6
:100500008FE39FE10197F1F700C00000089562E0DA
:100510000E945C028FE39FE10197F1F700C00000A9
:1005200008951F93CF93DF93D82FC92F162F62956D
:100530006F700E944102612F8D2F9C2FDF91CF9110
:100540001F910C944102589A0E9491025898089564
:10055000EF92FF920F931F93CF93DF93182F092FE2
:10056000EB01E12CF12C8991811107C0DF91CF9132
:100570001F910F91FF90EF90089580E1E816F1042C
:1005800029F460EC812F902F0E945C02FE016291A1
:10059000812F902F0E94A3028FEFE81AF80AE3CF71
:1005A000EF92FF920F931F93CF93DF93D82FC92F12
:1005B0007B010AE010E0B7018D2F9C2F0E94A8025A
:1005C0002FEF84E39CE0215080409040E1F700C091
:1005D00000008D2F9C2F0E947D022FEF84E39CE072
:1005E000215080409040E1F700C0000001501040D1
:1005F00011F7DF91CF911F910F91FF90EF90089528
:100600006F927F928F929F92AF92BF92CF92DF9222
:10061000EF92FF920F931F93CF93DF93CDB7DEB787
:10062000A1970FB6F894DEBF0FBECDBF182F092FCC
:100630005B01CE0101967C0181E2F70111928A955E
:10064000E9F7612C712CC42ED12C4601F1E08F1AF0
:1006500091086C147D0480F0FFEF23E284EFF150E9
:1006600020408040E1F700C00000812C912C370130
:100670006C0C7D1C57014DC0862D2FEF621A720A3B
:10068000D701982F8150F401E91BF10997FDF395EB
:10069000EA0DFB1D90819D938F3F99F7812F902F3D
:1006A0000E947D02B701812F902F0E94A8028FEF38
:1006B00093ECE9E081509040E040E1F700C0000099
:1006C000C8CF8981811118C0812F902FA1960FB6B4
:1006D000F894DEBF0FBECDBFDF91CF911F910F9178
:1006E000FF90EF90DF90CF90BF90AF909F908F9052
:1006F0007F906F900C947D02F501818181935F0161
:10070000812F902F0E947D02B701812F902F0E9490
:10071000A802A614B704A9F6FFEF23EC89E0F15074
:1007200020408040E1F700C000009FEF891A990A3D
:10073000C814D90408F09ECFA1960FB6F894DEBF76
:100740000FBECDBFDF91CF911F910F91FF90EF9022
:10075000DF90CF90BF90AF909F908F907F906F90E1
:100760000895CF92DF92EF92FF920F931F93CF9352
:10077000DF93CDB7DEB78C010E947D02CE010B96D0
:100780000E9406057C01019709F182E0E816F10458
:1007900059F0EF2899F1DF91CF911F910F91FF90C0
:1007A000EF90DF90CF900895CE010B960E94050543
:1007B000BC01C8010E94A8029FEF23E284EF915080
:1007C00020408040E1F700C00000E5CFCE010B964D
:1007D0000E9405056C01FC0101900020E9F73197AA
:1007E000CF018C199D096C01CE010B960E94050565
:1007F000BC014C2DC8010E940003CDCFCE010B9649
:100800000E940505BC01C8010E94D002C4CFEF922E
:10081000FF920F931F93CF93DF938C017A01660FA2
:10082000660F660F687360640E945C02E701C7018F
:1008300008967C016991C8010E94A302CE15DF05CC
:10084000C9F7DF91CF911F910F91FF90EF9008951D
:100850000F931F93CF93DF93CDB7DEB7A0970FB65B
:10086000F894DEBF0FBECDBF8C01509A519A549AB6
:10087000559A569A579A8FE59AEE0197F1F700C06C
:10088000000063E0C8010E9441028FE19EE40197ED
:10089000F1F700C0000063E0C8010E9441028FE848
:1008A00091E00197F1F700C0000063E0C8010E94E9
:1008B000410262E0C8010E94410268E2C8010E9450
:1008C0005C026CE0C8010E945C02C8010E947D02CB
:1008D00066E0C8010E945C0295E89A95F1F7000075
:1008E00088E0EEE9F3E0DE01599601900D928A95D9
:1008F000E1F7AE01475E5F4F60E0C8010E94070468
:1009000088E0EEEBF3E0DE01519601900D928A95BE
:10091000E1F7AE014F5E5F4F61E0C8010E9407043E
:1009200088E0E6EAF3E0DE01199601900D928A95DF
:10093000E1F7AE01475F5F4F62E0C8010E94070424
:1009400088E0EEEAF3E0DE01119601900D928A95BF
:10095000E1F7AE014F5F5F4F63E0C8010E940704FB
:10096000A0960FB6F894DEBF0FBECDBFDF91CF913A
:100970001F910F910895FC0111821082138212823F
:100980000C942804FC0110820895FC0110820C9440
:1009900052060F931F93CF93DF93EC018B0167EC0B
:1009A00073E0C8010E944906892B29F481E090E098
:1009B00099A388A309C06EEC73E0C8010E944906A0
:1009C000892B39F419A218A2DF91CF911F910F91B1
:1009D000089564ED73E0C8010E944906892BA1F7D0
:1009E00082E090E0E5CF0F931F93CF93DF93D82F52
:1009F000C92F8A010E94C504B8018D2F9C2FDF9159
:100A0000CF911F910F910C94C9040895FC0180A10E
:100A100091A10895CF93DF93EC010E94C204CE010F
:100A200082960E94C204CE018C5B9F4F0E94C2043A
:100A3000CA59DF4F1882DF91CF910895CF93DF938A
:100A4000CDB7DEB7DC01FC01EA59FF4F808191E0B0
:100A5000980F908392E28902A00DB11D112482E2C9
:100A6000FE01359601900D928A95E1F7DF91CF91C5
:100A7000089542E2469F9001479F300D1124820F56
:100A8000931F08950895FC01EA59FF4F8081082EB5
:100A9000000C990B0895CF93C0917C0080917C004D
:100AA000816080937C0080917A00876080937A00D7
:100AB00080917A00806880937A0080917A008064C7
:100AC00080937A0080917A0086FDFCCF9091780027
:100AD00080917A00806480937A0080917A0086FD0C
:100AE000FCCF809178000E943E0680917A008F773B
:100AF00080937A00C0937C00CF910895CDB7DEB784
:100B0000C25CD2400FB6F894DEBF0FBECDBF8E01DF
:100B100003541D4FC8010E94BB04C8010E94280451
:100B2000C8010E947D02CE0101966C010E9439012C
:100B30007E019FE3E91A9DEFF90AC7010E944B006D
:100B40000E944B05A601B701CE0185569D4F0E941C
:100B5000D5008DB79EB782970FB6F8949EBF0FBE93
:100B60008DBFADB7BEB7119682E2FE01E556FD4FCF
:100B700001900D928A95E1F7C8010E94B1030FB66A
:100B8000F894DEBF0FBECDBFDDCF97FB072E16F466
:100B9000009407D077FD09D00E94D90507FC05D045
:100BA0003EF4909581959F4F0895709561957F4F84
:100BB0000895AA1BBB1B51E107C0AA1FBB1FA617A4
:100BC000B70710F0A61BB70B881F991F5A95A9F7F6
:100BD00080959095BC01CD0108958F929F92AF9220
:100BE000BF92CF92DF92EF92FF92CF93DF93EC010F
:100BF000688179818A819B816115710581059105E3
:100C000021F464E279ED8BE597E02DE133EF41E0EB
:100C100050E00E94590649015A019B01AC01A7EA24
:100C2000B1E40E9478066B017C01ACEEB4EFA50143
:100C300094010E948606DC01CB018C0D9D1DAE1D2A
:100C4000BF1DB7FF03C00197A109B04888839983EE
:100C5000AA83BB839F77DF91CF91FF90EF90DF90C6
:100C6000CF90BF90AF909F908F9008950E94ED0518
:100C7000089580E091E00E94ED050895A0E0B0E0C5
:100C80008093000190930101A0930201B0930301AE
:100C90000895FB01DC018D91019080190110D9F3B9
:100CA000990B0895FB01DC0101900D920020E1F702
:100CB0000895052E97FB1EF400940E94700657FDC0
:100CC00007D00E948B0607FC03D04EF40C947006EC
:100CD00050954095309521953F4F4F4F5F4F089568
:100CE00090958095709561957F4F8F4F9F4F089598
:100CF0000E94AD06A59F900DB49F900DA49F800DFE
:100D0000911D11240895B7FF0C9478060E9478066F
:100D1000821B930B0895A1E21A2EAA1BBB1BFD0197
:100D20000DC0AA1FBB1FEE1FFF1FA217B307E407CA
:100D3000F50720F0A21BB30BE40BF50B661F771F22
:100D4000881F991F1A9469F7609570958095909502
:100D50009B01AC01BD01CF010895A29FB001B39FDB
:100D6000C001A39F700D811D1124911DB29F700DB4
:0C0D7000811D1124911D0895F894FFCFFF
:100D7C000100000048656465726C69676520486114
:100D8C00727279732042696C61720000000000007D
:100D9C00000000008813580142757920796F757234
:100DAC00206361722066726F6D2048617272797374
:100DBC002C7363726F6C6C2C4120676F6F642064B2
:100DCC0065616C2028666F72204861727279292CDB
:100DDC00706C61696E2C48656465726C696765201E
:100DEC004861727279732042696C61722C626C6911
:100DFC006E6B2C00000000004661726D6F7220411A
:100E0C006E6B61732050616A657220414200000074
:100E1C000000000000000000B80B2702427579208A
:100E2C007069652066726F6D204772616D6D61200F
:100E3C004475636B2C7363726F6C6C2C4875727297
:100E4C0079206265666F7265204D617274656E20E3
:100E5C00656174732069742C706C61696E2C000070
:100E6C000000000000000000000000000000000076
:100E7C0000000000000000000000000053766172CA
:100E8C007465205065747465727320537661727446
:100E9C0062796767656E000000000000DC058F0258
:100EAC004C657420506574746572206275696C644D
:100EBC0020666F7220796F752C7363726F6C6C2C5B
:100ECC004E6F207461783F2043616C6C20506574C8
:100EDC00746572212C706C61696E2C00000000002E
:100EEC0000000000000000000000000000000000F6
:100EFC0000000000000000000000000000000000E6
:100F0C00476F6F66792773204465746563746976DF
:100F1C0065204167656E63790000000000000000E9
:100F2C00A00FA3034D79737465726965733F2043F9
:100F3C00616C6C20476F6F66792C706C61696E2CDC
:100F4C00476F6F6679206B697272207468652062D6
:100F5C006966662C706C61696E2C000000000000E4
:100F6C000000000000000000000000000000000075
:100F7C000000000000000000000000000000000065
:100F8C00000000004375706572416473000000003E
:100F9C000000000000000000000000000000000045
:100FAC0000000000E803E8034C6F6F6B696E67206C
:100FBC00746F206265207365656E3F2043616C6CB5
:100FCC00207573212C7363726F6C6C2C0000000005
:100FDC000000000000000000000000000000000005
:100FEC0000000000000000000000000000000000F5
:100FFC0000000000000000000000000000000000E5
:10100C0000000000000000000500A43800000400EF
:10101C000E010F110F00000C0A090A0C000000064B
:10102C000A120A060000556E6B6F776E0A001F11CC
:10103C000A04040A111F007363726F6C6C00626CFB
:0A104C00696E6B00706C61696E0044
:00000001FF
