:100000000C9434000C9451000C9451000C94510049
:100010000C9451000C9451000C9451000C9451001C
:100020000C9451000C9451000C9451000C9451000C
:100030000C9451000C9451000C9451000C945100FC
:100040000C9451000C9451000C9451000C945100EC
:100050000C9451000C9451000C9451000C945100DC
:100060000C9451000C94510011241FBECFEFD8E026
:10007000DEBFCDBF12E0A0E0B1E0E4E9F0E102C0F4
:1000800005900D92A23EB107D9F722E0A2EEB2E0B0
:1000900001C01D92A63EB207E1F70E943B060C94F8
:1000A00048080C940000CF93DF93FC018FEF81830D
:1000B000808380E090E00E942208CB01DF91CF9105
:1000C0000C9407084F925F926F927F92AF92BF920B
:1000D000CF92DF92EF92FF920F931F93CF93DF9314
:1000E0006C01162F072F89EEA82E83E0B82E0E94F0
:1000F0000208B5010E943707E12CF12CC0E0D0E0E6
:100100002C01990F66087708812F902F0E94A40177
:10011000C817D90764F7812F902F0E94AA018E0D6E
:100120009F1D0E94F6022DE8E20EF11C46165706AE
:1001300068067906C4F4F6018081082E001C0008C8
:100140008C170D06A1F2CE01DF91CF911F910F9177
:10015000FF90EF90DF90CF90BF90AF907F906F9027
:100160005F904F9008952196CFCFEF92FF920F931B
:100170001F93CF93DF93CDB7DEB7C756D1090FB624
:10018000F894DEBF0FBECDBF7B010E9402088C0138
:10019000B701CE0101960E94ED02CE0101960E94A8
:1001A0000006BC01C8010E943707C959DF4F0FB6CE
:1001B000F894DEBF0FBECDBFDF91CF911F910F919D
:1001C000FF90EF900895CF92DF92EF92FF920F93FE
:1001D0001F93CF93DF93CDB7DEB7C756D1090FB6C4
:1001E000F894DEBF0FBECDBF6C018B017A01BA015E
:1001F000C8010E946200682FF8018083062E000C5F
:10020000770BC7010E94AB01BC01C8010E94B50079
:10021000F80181836081062E000C770BC7010E94D4
:10022000AB01BC01CE0101960E94ED02F801618193
:10023000062E000C770BCE0101960E94F605FC01FC
:1002400082E2D60101900D928A95E1F7C601C95963
:10025000DF4F0FB6F894DEBF0FBECDBFDF91CF9159
:100260001F910F91FF90EF90DF90CF900895FC01C8
:1002700061830895FC0160830895FC0180810895E5
:10028000FC0181810895EF92FF920F931F93CF930A
:10029000DF93EC018C017C0182EBE81A8CEFF80A09
:1002A000C8010E94150203571F4F0E151F05C1F705
:1002B000F80111821082C05BDC4F188219821A8209
:1002C0001B82DF91CF911F910F91FF90EF900895C6
:1002D0000F931F93CF93DF93CDB7DEB78C01FC0153
:1002E000E25BFC4F808191819C012F5F3F4F318306
:1002F00020832DE8289FD001299FB00D1124A00F45
:10030000B11F8DE8FE01379601900D928A95E1F7B5
:10031000CE0107960E94E902F801E05BFC4F092E2E
:10032000000CAA0BBB0B4081518162817381840F49
:10033000951FA61FB71F80839183A283B383DF918C
:10034000CF911F910F910895FC01E25BFC4F8081DA
:100350009181089508954DE8469F9001479F300D83
:100360001124820F931F0895FC01E05BFC4F608114
:1003700071818281938108958F929F92AF92BF92F3
:10038000CF92DF92EF92FF920F931F93CF93DF9361
:10039000EC0100E010E0812C912C54016C0122EB67
:1003A000C21A2CEFD20A7C0180EBE81A8CEFF80A13
:1003B000F60180819181081719076CF0DF91CF91C8
:1003C0001F910F91FF90EF90DF90CF90BF90AF9073
:1003D0009F908F900895CE010E94E90228EE33E0AD
:1003E000DC010E946A07F70120813181428153813B
:1003F0000E944B07BA01A901480D591D6A1D7B1DBA
:10040000CE010E94E002CE010E94F6026F5F7F4F94
:100410008F4F9F4F4B015C010F5F1F4FC357DF4F43
:10042000C7CFFC0110820C941B08CF93DF93EC0123
:1004300082960E94C7056DEB72E0CE01DF91CF91ED
:100440000C941102FC0171A360A30895AF92BF92B6
:10045000CF92DF92EF92FF920F931F93CF93DF9390
:10046000CDB7DEB7C954D1090FB6F894DEBF0FBEC1
:10047000CDBF5C018B016B01E12CF12C20E030E061
:1004800080E090E0F80101900020E9F73197E01B4F
:10049000F10BEE16FF0690F0C75BDF4F0FB6F89436
:1004A000DEBF0FBECDBFDF91CF911F910F91FF90A7
:1004B000EF90DF90CF90BF90AF900895F6014191FB
:1004C0006F014C32D1F02115310559F02130310541
:1004D00089F02F5F3F4F80E090E0FFEFEF1AFF0AB7
:1004E000D1CFE3E2F0E0EC0FFD1FE80FF91F4083EE
:1004F0000196F3CFE3E4F0E0F6CF2115310541F0AA
:100500002130310571F02F5F3F4F80E090E0E5CF63
:10051000FE01E80FF91F13A280E090E021E030E037
:10052000DCCFFE01ED5BFF4FE80FF91F1082AE013B
:100530004D5B5F4FBE016D5D7F4FCE0101960E9406
:10054000B0058DB79EB782970FB6F8949EBF0FBEC9
:100550008DBFADB7BEB7119682E2FE013196019014
:100560000D928A95E1F7C50182960E94DB050FB6D0
:10057000F894DEBF0FBECDBF20E030E0C6CFCF92F3
:10058000DF92EF92FF920F931F93CF93DF93EC01D3
:100590006B017A01890182960E94C705B601CE01DE
:1005A0000E941102E8A2F9A2B801CE01DF91CF9119
:1005B0001F910F91FF90EF90DF90CF900C94260247
:1005C000FC01E757FF4F4083518362837383089593
:1005D0000895FC0180A191A1089527E6FB01B29640
:1005E000DC0101900D922A95E1F70895FC01E7578F
:1005F000FF4F6081718182819381089560FF11C0F6
:100600005C9A61FF10C05D9A62FF0FC05E9A63FF43
:100610000EC05F9A599A85E08A95F1F700005998C3
:1006200008955C98EECF5D98EFCF5E98F0CF5F981D
:10063000F1CF1F93CF93DF93D82FC92F162F629539
:100640006F700E94FE02612F8D2F9C2F0E94FE0270
:1006500087EC90E00197F1F700C00000DF91CF91A7
:100660001F9108954295440F440F407C6058640FD9
:100670000C94190361E00E9419038FE39FE1019735
:10068000F1F700C00000089562E00E9419038FE3B3
:100690009FE10197F1F700C0000008951F93CF93E9
:1006A000DF93D82FC92F162F62956F700E94FE021C
:1006B000612F8D2F9C2FDF91CF911F910C94FE0203
:1006C000589A0E944E0358980895EF92FF920F9304
:1006D0001F93CF93DF93182F092FEB01E12CF12CFF
:1006E0008991811107C0DF91CF911F910F91FF90E8
:1006F000EF90089580E1E816F10429F460EC812F71
:10070000902F0E941903FE016291812F902F0E9469
:1007100060038FEFE81AF80AE3CFEF92FF920F938E
:100720001F93CF93DF93D82FC92F7B010AE010E0EE
:10073000B7018D2F9C2F0E9465032FEF84E39CE06F
:10074000215080409040E1F700C000008D2F9C2F89
:100750000E943A032FEF84E39CE0215080409040B8
:10076000E1F700C000000150104011F7DF91CF9178
:100770001F910F91FF90EF9008956F927F928F924B
:100780009F92AF92BF92CF92DF92EF92FF920F9320
:100790001F93CF93DF93CDB7DEB7A1970FB6F89431
:1007A000DEBF0FBECDBF182F092F5B01CE01019612
:1007B0007C0181E2F70111928A95E9F7612C712C95
:1007C000C42ED12C4601F1E08F1A91086C147D04DF
:1007D00080F0FFEF23E284EFF15020408040E1F70A
:1007E00000C00000812C912C37016C0C7D1C57013E
:1007F0004DC0862D2FEF621A720AD701982F8150B3
:10080000F401E91BF10997FDF395EA0DFB1D9081B9
:100810009D938F3F99F7812F902F0E943A03B70144
:10082000812F902F0E9465038FEF93ECE9E08150B8
:100830009040E040E1F700C00000C8CF89818111FD
:1008400018C0812F902FA1960FB6F894DEBF0FBE6F
:10085000CDBFDF91CF911F910F91FF90EF90DF906F
:10086000CF90BF90AF909F908F907F906F900C949F
:100870003A03F501818181935F01812F902F0E94BE
:100880003A03B701812F902F0E946503A614B70485
:10089000A9F6FFEF23EC89E0F15020408040E1F71A
:1008A00000C000009FEF891A990AC814D90408F003
:1008B0009ECFA1960FB6F894DEBF0FBECDBFDF91DD
:1008C000CF911F910F91FF90EF90DF90CF90BF904D
:1008D000AF909F908F907F906F900895CF92DF920E
:1008E000EF92FF920F931F93CF93DF93CDB7DEB7B5
:1008F0008C010E943A03CE010B960E94C3057C0135
:10090000019709F182E0E816F10459F0EF2899F116
:10091000DF91CF911F910F91FF90EF90DF90CF90DB
:100920000895CE010B960E94C205BC01C8010E9429
:1009300065039FEF23E284EF915020408040E1F770
:1009400000C00000E5CFCE010B960E94C2056C01ED
:10095000FC0101900020E9F73197CF018C199D0926
:100960006C01CE010B960E94C205BC014C2DC80142
:100970000E94BD03CDCFCE010B960E94C205BC01E3
:10098000C8010E948D03C4CFEF92FF920F931F9373
:10099000CF93DF938C017A01660F660F660F687341
:1009A00060640E941903E701C70108967C01699100
:1009B000C8010E946003CE15DF05C9F7DF91CF9112
:1009C0001F910F91FF90EF9008950F931F93CF9376
:1009D000DF93CDB7DEB7A0970FB6F894DEBF0FBE9A
:1009E000CDBF8C01509A519A549A559A569A579A5B
:1009F0008FE59AEE0197F1F700C0000063E0C801AF
:100A00000E94FE028FE19EE40197F1F700C0000012
:100A100063E0C8010E94FE028FE891E00197F1F7C0
:100A200000C0000063E0C8010E94FE0262E0C8014D
:100A30000E94FE0268E2C8010E9419036CE0C8012E
:100A40000E941903C8010E943A0366E0C8010E948F
:100A5000190395E89A95F1F7000088E0E4E0F1E0E9
:100A6000DE01599601900D928A95E1F7AE01475E3D
:100A70005F4F60E0C8010E94C40488E0E5ECF2E04A
:100A8000DE01519601900D928A95E1F7AE014F5E1D
:100A90005F4F61E0C8010E94C40488E0ECE0F1E02F
:100AA000DE01199601900D928A95E1F7AE01475F3C
:100AB0005F4F62E0C8010E94C40488E0E4E1F1E015
:100AC000DE01119601900D928A95E1F7AE014F5F1C
:100AD0005F4F63E0C8010E94C404A0960FB6F8946B
:100AE000DEBF0FBECDBFDF91CF911F910F91089553
:100AF000FC0111821082138212820C94E504FC0125
:100B000010820895FC0110820C941B080F931F9310
:100B1000CF93DF93EC018B016EEC72E0C8010E9471
:100B20001208892B29F481E090E099A388A309C0D9
:100B300065ED72E0C8010E941208892B39F419A2F0
:100B400018A2DF91CF911F910F9108956BED72E084
:100B5000C8010E941208892BA1F782E090E0E5CF3E
:100B60000F931F93CF93DF93D82FC92F8A010E9431
:100B70008205B8018D2F9C2FDF91CF911F910F918E
:100B80000C9486050895FC0180A191A10895CF934E
:100B9000DF93EC010E947F05CE0182960E947F05C3
:100BA000CE018C5B9F4F0E947F05CA59DF4F188290
:100BB000DF91CF910895CF93DF93CDB7DEB7DC01FE
:100BC000FC01EA59FF4F808191E0980F908392E2F7
:100BD0008902A00DB11D112482E2FE01359601901B
:100BE0000D928A95E1F7DF91CF91089542E2469FF9
:100BF0009001479F300D1124820F931F089508958F
:100C0000FC01EA59FF4F8081082E000C990B0895D2
:100C1000CF93C0917C0080917C00816080937C00A8
:100C200080917A00876080937A0080917A00806852
:100C300080937A0080917A00806480937A0080911A
:100C40007A0086FDFCCF9091780080917A008064D4
:100C500080937A0080917A0086FDFCCF80917800A5
:100C60000E94070880917A008F7780937A00C09362
:100C70007C00CF910895CDB7DEB7C75ED3400FB6E5
:100C8000F894DEBF0FBECDBF6E018EE1C81A8CEFA7
:100C9000D80AC6010E947805C6010E94E504C60173
:100CA0000E943A03CE0101967C010E9443018E010D
:100CB0000B5A1C4F2CE131E048E853E168E771E042
:100CC000C8010E94BF028DB79EB78D5891090FB61B
:100CD000F8949EBF0FBE8DBFADB7BEB711968DE81D
:100CE000F80101900D928A95E1F7C7010E94680111
:100CF0000FB6F894DEBF0FBECDBF2FE831E048EB52
:100D00005BE062ED71E0C8010E94BF028DB79EB743
:100D10008D5891090FB6F8949EBF0FBE8DBFADB729
:100D2000BEB711968DE8F80101900D928A95E1F712
:100D3000C7010E9468010FB6F894DEBF0FBECDBF99
:100D400028EE31E04CED55E064E272E0C8010E940B
:100D5000BF028DB79EB78D5891090FB6F8949EBF0C
:100D60000FBE8DBFADB7BEB711968DE8F8010190EB
:100D70000D928A95E1F7C7010E9468010FB6F894B9
:100D8000DEBF0FBECDBF2FE332E040EA5FE066E793
:100D900072E0C8010E94BF028DB79EB78D589109BD
:100DA0000FB6F8949EBF0FBE8DBFADB7BEB71196FC
:100DB0008DE8F80101900D928A95E1F7C7010E9434
:100DC00068010FB6F894DEBF0FBECDBF2FE832E04A
:100DD00048EE53E064EB72E0C8010E94BF028DB799
:100DE0009EB78D5891090FB6F8949EBF0FBE8DBF68
:100DF000ADB7BEB711968DE8F80101900D928A95B6
:100E0000E1F7C7010E9468010FB6F894DEBF0FBE7C
:100E1000CDBFC7010E94BC015E019AE1A91A9CEFF7
:100E2000B90AC5010E9453000E94080647017501D6
:100E3000A401B701C8010E94E3008DB79EB7829755
:100E40000FB6F8949EBF0FBE8DBFADB7BEB711965B
:100E500082E2F80101900D928A95E1F7C6010E94A5
:100E60006E040FB6F894DEBF0FBECDBFE1CF97FB87
:100E7000072E16F4009407D077FD09D00E94710761
:100E800007FC05D03EF4909581959F4F089570958D
:100E900061957F4F0895052E97FB1EF400940E94E4
:100EA000620757FD07D00E94850707FC03D04EF468
:100EB0000C94620750954095309521953F4F4F4FC8
:100EC0005F4F089590958095709561957F4F8F4FF6
:100ED0009F4F08950E94A707B7FF0895821B930BA9
:100EE0000895AA1BBB1B51E107C0AA1FBB1FA61771
:100EF000B70710F0A61BB70B881F991F5A95A9F7C3
:100F000080959095BC01CD010895A1E21A2EAA1BEF
:100F1000BB1BFD010DC0AA1FBB1FEE1FFF1FA217A9
:100F2000B307E407F50720F0A21BB30BE40BF50BA6
:100F3000661F771F881F991F1A9469F7609570952F
:100F4000809590959B01AC01BD01CF010895A29FB2
:100F5000B001B39FC001A39F700D811D1124911D8D
:100F6000B29F700D811D1124911D08958F929F9243
:100F7000AF92BF92CF92DF92EF92FF92CF93DF9327
:100F8000EC01688179818A819B81611571058105F8
:100F9000910521F464E279ED8BE597E02DE133EFE3
:100FA00041E050E00E944B0749015A019B01AC010E
:100FB000A7EAB1E40E9435086B017C01ACEEB4EF06
:100FC000A50194010E944308DC01CB018C0D9D1DFD
:100FD000AE1DBF1DB7FF03C00197A109B0488883AC
:100FE0009983AA83BB839F77DF91CF91FF90EF9086
:100FF000DF90CF90BF90AF909F908F9008950E9408
:10100000B607089580E091E00E94B6070895A0E039
:10101000B0E08093000190930101A0930201B0938E
:1010200003010895FB01DC018D91019080190110ED
:10103000D9F3990B0895FB01DC0101900D9200207A
:10104000E1F70895FC012FB7F8946091E2027091E6
:10105000E3028091E4029091E5022FBF309721F0E6
:10106000608371838283938308950E94A707A59F5D
:10107000900DB49F900DA49F800D911D1124089593
:10108000B7FF0C9435080E943508821B930B089516
:04109000F894FFCF02
:101094000100000004000E010F110F00000C0A09EA
:1010A4000A0C000000060A120A06000042757920A4
:1010B400796F7572206361722066726F6D2048616A
:1010C400727279732C7363726F6C6C2C4120676F2E
:1010D4006F64206465616C2028666F7220486172B9
:1010E4007279292C706C61696E2C48656465726C28
:1010F400696765204861727279732042696C617214
:101104002C626C696E6B2C0048656465726C69674F
:1011140065204861727279732042696C6172004281
:101124007579207069652066726F6D204772616DF4
:101134006D61204475636B2C7363726F6C6C2C4807
:1011440075727279206265666F7265204D61727482
:10115400656E20656174732069742C706C61696EAE
:101164002C004661726D6F7220416E6B617320506A
:10117400616A6572204142004C6574205065747444
:101184006572206275696C6420666F7220796F7570
:101194002C7363726F6C6C2C4E6F207461783F20DB
:1011A40043616C6C20506574746572212C706C61A1
:1011B400696E2C0053766172746520506574746591
:1011C400727320537661727462796767656E004D3D
:1011D40079737465726965733F2043616C6C204751
:1011E4006F6F66792C706C61696E2C476F6F6679CE
:1011F400206B6972722074686520626966662C705F
:101204006C61696E2C00476F6F66792773204465A3
:1012140074656374697665204167656E6379004C13
:101224006F6F6B696E6720746F20626520736565EC
:101234006E3F2043616C6C207573212C7363726F55
:101244006C6C2C00437570657241647300556E6B51
:101254006F776E0A001F110A04040A111F007363DA
:10126400726F6C6C00626C696E6B00706C61696E9D
:02127400000078
:00000001FF
