:100000000C949A010C94B7010C94B7010C94B701AD
:100010000C94B7010C94B7010C94B7010C946F09C0
:100020000C94B7010C94B7010C94B7010C94B70170
:100030000C94B7010C94B7010C94B7010C94B70160
:100040000C94B7010C94B7010C94B7010C94B70150
:100050000C94B7010C94B7010C94B7010C94B70140
:100060000C94B7010C94B70148454445524C49479C
:1000700045204841525259532042494C4152204157
:10008000420000000000000088135801425559202A
:10009000594F5552204341522046524F4D2048411E
:1000A000525259532C7363726F6C6C2C4120474F22
:1000B0004F44204445414C2028464F52204841524D
:1000C0005259292C706C61696E2C47495645204D58
:1000D0004520594F5552204D4F4E41592C626C6965
:1000E0006E6B2C0000000000000000000A1F101FB3
:1000F000011F0A0001004752414D4D59204455430C
:100100004B27532050494553204142000000000036
:10011000000000000000B80B27024255592050494A
:10012000452046524F4D204752414D4D5920445590
:10013000434B2C7363726F6C6C2C4D414B494E4793
:100140002050454F504C4520464C4F415420534978
:100150004E434520313936342C706C61696E2C0069
:10016000000000000000000000000000000000008F
:100170000000000000000000000004120912000E40
:10018000111F010050455454455227532048414EF9
:1001900044594D414E204142000000000000000043
:1001A00000000000DC058F024C45542042455454A9
:1001B000455220444F20544845204255494C44491B
:1001C0004E472C7363726F6C6C2C4E4F572054410A
:1001D0005846524545212043414C4C2050455454EB
:1001E000455220544F4441592C706C61696E2C006B
:1001F00000000000000000000000000000000000FF
:10020000000000000000000000010F1504040404B9
:100210000000474F4F4659204445544543544956E2
:1002200045204147454E435920414200000000000F
:100230000000A00FA3034D59535445524945533F65
:100240002043414C4C20474F4F4659212C706C6144
:10025000696E2C474F4F4659204B49525220544803
:100260004520424946462C706C61696E2C000000A6
:10027000000000000000000000000000000000007E
:10028000000000000000000000000000000000006E
:100290000000000000000E1111110E040201010007
:1002A00043555045524144530000000000000000F7
:1002B000000000000000000000000000000000003E
:1002C000E803E8034C4F4F4B494E4720544F204220
:1002D00045204345454E3F2043414C4C205553213A
:1002E0002C7363726F6C6C2C000000000000000027
:1002F00000000000000000000000000000000000FE
:1003000000000000000000000000000000000000ED
:1003100000000000000000000000000000000000DD
:10032000000000001D101D00170517050100050045
:10033000A438000011241FBECFEFD8E0DEBFCDBF30
:1003400011E0A0E0B1E0E2EDF5E102C005900D9210
:10035000A633B107D9F721E0A6E3B1E001C01D92B1
:10036000AA33B207E1F70E9492090C94E70A0C94B1
:1003700000002FEF3FEFFC013183208308954F925F
:100380005F926F927F928F929F92AF92BF92CF9225
:10039000DF92EF92FF920F931F93CF93DF93CDB72E
:1003A000DEB7CE58D1090FB6F894DEBF0FBECDBF71
:1003B0002C016B017A0189EE682E83E0782E5A01B8
:1003C0008AE3A81A8DEFB80A4A0192E2890E911CBD
:1003D0000E94620AB3010E94CC0900E010E020E014
:1003E00030E0F501459155912417350788F7F40160
:1003F000E00FF11F45915591B80162577F4F841767
:10040000950708F045C0F601808191818217930716
:10041000F9F231832083B701600F711F4EE850E07D
:10042000CE0101960E94720A8DB79EB78E5891092F
:100430000FB6F8949EBF0FBE8DBFADB7BEB7119675
:100440008EE8FE01319601900D928A95E1F7C20186
:100450000E9467030FB6F894DEBF0FBECDBFC20186
:10046000C257DF4F0FB6F894DEBF0FBECDBFDF918E
:10047000CF911F910F91FF90EF90DF90CF90BF90A1
:10048000AF909F908F907F906F905F904F90089566
:100490002F5F3F4F8B01A5CFEF92FF920F931F93DA
:1004A000CF93DF93CDB7DEB7C756D1090FB6F89417
:1004B000DEBF0FBECDBF7B010E94620A8C01B70177
:1004C000CE0101960E94BD03CE0101960E94B308A1
:1004D000BC01C8010E94CC09C959DF4F0FB6F8947E
:1004E000DEBF0FBECDBFDF91CF911F910F91FF9067
:1004F000EF900895062E000C770BFC01718360834A
:100500000895FC0180819181089588E690E0089526
:10051000FC0110820C94960ACF93DF93EC01829633
:100520000E947A08CE0187579F4F0E94EE0864E030
:1005300071E0CE01DF91CF910C948802FC0171A390
:1005400060A30895FC01EF56FF4F71836083089507
:10055000AF92BF92CF92DF92EF92FF920F931F93D1
:10056000CF93DF93CDB7DEB7C954D1090FB6F89456
:10057000DEBF0FBECDBF5C018B016B01E12CF12C06
:1005800020E030E080E090E0F80101900020E9F701
:100590003197E01BF10BEE16FF0690F0C75BDF4FC3
:1005A0000FB6F894DEBF0FBECDBFDF91CF911F9184
:1005B0000F91FF90EF90DF90CF90BF90AF90089594
:1005C000F60141916F014C32D1F02115310559F0FE
:1005D0002130310589F02F5F3F4F80E090E0FFEF41
:1005E000EF1AFF0AD1CFE3E2F0E0EC0FFD1FE80FB6
:1005F000F91F40830196F3CFE3E4F0E0F6CF211535
:10060000310541F02130310571F02F5F3F4F80E01F
:1006100090E0E5CFFE01E80FF91F13A280E090E023
:1006200021E030E0DCCFFE01ED5BFF4FE80FF91F6A
:100630001082AE014D5B5F4FBE016D5D7F4FCE01FD
:1006400001960E9463088DB79EB782970FB6F89403
:100650009EBF0FBE8DBFADB7BEB7119682E2FE0141
:10066000319601900D928A95E1F7C50182960E941C
:100670008E080FB6F894DEBF0FBECDBF20E030E08D
:10068000C6CFCF92DF92EF92FF920F931F93CF933B
:10069000DF93EC016B017A01890182960E947A084E
:1006A000CE0187579F4F0E94EE08B601CE010E94EF
:1006B0008802E8A2F9A2B801CE01DF91CF911F9183
:1006C0000F91FF90EF90DF90CF900C94A802EF92E3
:1006D000FF920F931F93CF93DF93CDB7DEB7289789
:1006E0000FB6F894DEBF0FBECDBF8C0182960E947C
:1006F0007A08780189E8E80EF11CC7010E94EE082B
:10070000BE016F5E7F4FC8010E94880289A99AA925
:10071000F80191A380A3BE016B5C7F4FC8010E94CA
:10072000A802BE016B567F4FCE0101960E94F408CD
:1007300088E0FE013196D70101900D928A95E1F78C
:10074000F801EF56FF4FC356DF4F88819981CD598D
:10075000D0409183808328960FB6F894DEBF0FBEF9
:10076000CDBFDF91CF911F910F91FF90EF90089532
:100770000895FC0180A191A1089527E6FB01B2969E
:10078000DC0101900D922A95E1F70895CF93DF9354
:10079000CDB7DEB728970FB6F894DEBF0FBECDBF3A
:1007A000FC01E757FF4F88E0DE01119601900D92A2
:1007B0008A95E1F729813A814B815C816D817E8147
:1007C0008F81988528960FB6F894DEBF0FBECDBFF7
:1007D000DF91CF910895FC01EF56FF4F8081918109
:1007E000089560FF11C05C9A61FF10C05D9A62FFBE
:1007F0000FC05E9A63FF0EC05F9A5B9A85E08A9590
:10080000F1F700005B9808955C98EECF5D98EFCF0C
:100810005E98F0CF5F98F1CF1F93CF93DF93D82FDF
:10082000C92F162F62956F700E94F103612F8D2FD3
:100830009C2F0E94F1038FE891E00197F1F700C02F
:100840000000DF91CF911F9108954295440F440F0E
:10085000407C6058640F0C940C0461E00E940C040E
:100860008FE39FE10197F1F700C00000089562E077
:100870000E940C048FE39FE10197F1F700C0000094
:1008800008951F93CF93DF93D82FC92F162F62950A
:100890006F700E94F103612F8D2F9C2FDF91CF91FC
:1008A0001F910C94F1035A9AEFE1FEE43197F1F7AE
:1008B00000C000000E9441048FE19EE40197F1F71F
:1008C00000C000005A98EFE1FEE43197F1F700C054
:1008D00000000895EF92FF920F931F93CF93DF9341
:1008E000182F092FEB01E12CF12C8991811107C000
:1008F000DF91CF911F910F91FF90EF90089580E1CC
:10090000E816F10429F460EC812F902F0E940C046A
:10091000FE016291812F902F0E9453048FEFE81AFD
:10092000F80AE3CF4F925F926F927F928F929F92DD
:10093000AF92BF92CF92DF92EF92FF920F931F93ED
:10094000CF93DF93EC01162F072F0E9405096B014F
:100950007C010E9405096C197D098E099F09683880
:1009600073418105910588F0DF91CF911F910F911F
:10097000FF90EF90DF90CF90BF90AF909F908F90BF
:100980007F906F905F904F9008950E9405094B01F2
:100990005C01612F702FCE010E946A040E9405093C
:1009A000681979098A099B096A3F710581059105D2
:1009B000A8F3CE010E942D040E9405092B013C01E1
:1009C0000E94050964197509860997096A3F71052E
:1009D00081059105A8F3BDCF2F923F924F925F9270
:1009E0006F927F928F929F92AF92BF92CF92DF923F
:1009F000EF92FF920F931F93CF93DF93CDB7DEB7A4
:100A0000AF970FB6F894DEBF0FBECDBF8AA39BA3EE
:100A10006CA77DA7B42E0E9405096B017C010E9482
:100A20000509FE01319681E2DF011D928A95E9F701
:100A3000812CAE2E9F2EEB2DE150FF0BFFA7EEA7D2
:100A40008B102DC00E9405092B013C010E94050955
:100A50006C197D098E099F09653F714081059105DB
:100A600008F054C044ECC40E49E0D41EE11CF11C53
:100A7000C418D508E608F708CC0CDD1CEE1CFF1CDA
:100A80000E94050964197509860997096C157D0589
:100A90008E059F05A8F3F12C2A2C392C68C0882DCF
:100AA0000A2D192DE82F81502EA53FA52E1B3109A7
:100AB000E7FD3395F9014CA55DA5E40FF51F908185
:100AC000D8019D938D018F3F69F78AA19BA10E9458
:100AD0002D046A2D792D8AA19BA10E946A040E948F
:100AE000050968A779A78AA79BA70E94050928A5D9
:100AF00039A54AA55BA5621B730B840B950B62336A
:100B000071058105910588F383949ACF0E940509A8
:100B10006419750986099709603D7740810591053B
:100B2000A8F3B9CF898181111CC08AA19BA1AF967E
:100B30000FB6F894DEBF0FBECDBFDF91CF911F91EE
:100B40000F91FF90EF90DF90CF90BF90AF909F906C
:100B50008F907F906F905F904F903F902F900C946C
:100B60002D04D10111968C91F10181931F01822DE9
:100B70008A198B15B8F28AA19BA10E942D046A2DB7
:100B8000792D8AA19BA10E946A040E9405096CA389
:100B90007DA38EA39FA30E9405092CA13DA14EA178
:100BA0005FA1621B730B840B950B6233710581058A
:100BB000910588F381E08F0DBF1411F0F82E6CCFF2
:100BC000AF960FB6F894DEBF0FBECDBFDF91CF91C9
:100BD0001F910F91FF90EF90DF90CF90BF90AF905B
:100BE0009F908F907F906F905F904F903F902F904D
:100BF0000895CF93DF93D82FC92F529A539A549ABE
:100C0000559A569A579A5C982FEF81EE94E02150AE
:100C100080409040E1F700C0000063E08D2F9C2FE2
:100C20000E94F1038FE19EE40197F1F700C00000FC
:100C300063E08D2F9C2F0E94F1038FE891E00197D4
:100C4000F1F700C0000063E08D2F9C2F0E94F1039C
:100C50008FE891E00197F1F700C0000062E08D2F6E
:100C60009C2F0E94F1038FE891E00197F1F700C0FB
:100C7000000068E28D2F9C2F0E940C048FE891E009
:100C80000197F1F700C000006CE08D2F9C2F0E94AF
:100C90000C048FE891E00197F1F700C000008D2F60
:100CA0009C2F0E942D048FE39FE10197F1F700C074
:100CB000000066E08D2F9C2F0E940C048FE891E0CD
:100CC0000197F1F700C00000DF91CF910895FC017A
:100CD00011821082138212820C94F905EF92FF9216
:100CE0000F931F93CF93DF938C017A01660F660FEA
:100CF000660F687360640E940C04E701C7010896E0
:100D00007C016991C8010E945304CE15DF05C9F723
:100D1000DF91CF911F910F91FF90EF9008954F9227
:100D20005F926F927F92AF92BF92CF92DF92EF92DB
:100D3000FF920F931F93CF93DF93CDB7DEB7289722
:100D40000FB6F894DEBF0FBECDBF8C01D62EC72ED6
:100D5000862F972F0E94C60329833A834B835C8397
:100D60006D837E838F839887CE0101960E94F80859
:100D7000AC0160E0C8010E946E06C8010E942D040B
:100D800060E0C8010E945304E12CF12C8D2D9C2DB4
:100D90000E94B803FC0101900020E9F73197E81B9D
:100DA000F90BEE16FF06D0F480E2E816F104B1F07C
:100DB0002FE0E21204C060ECC8010E940C048D2DEB
:100DC0009C2D0E94B803FC01EE0DFF1D6081C8013F
:100DD0000E9453042FEFE21AF20AD8CF60E0C80154
:100DE0000E9453040E9405092B013C010E94050941
:100DF0006419750986099709683B7B40810591054F
:100E0000A8F328960FB6F894DEBF0FBECDBFDF91D2
:100E1000CF911F910F91FF90EF90DF90CF90BF90F7
:100E2000AF907F906F905F904F9008952F923F9278
:100E30004F925F926F927F928F929F92AF92BF92EA
:100E4000CF92DF92EF92FF920F931F93CF93DF9396
:100E5000CDB7DEB7CE5CD1090FB6F894DEBF0FBEBA
:100E6000CDBF7C018B011A010E942D04B801C7017E
:100E70000E948F06C7010E942D040E9405092B01C4
:100E80003C01C8010E94EB03019709F087C0B8013B
:100E9000CE0101960E94BD03B101CE0101960E94D0
:100EA000A9080E9476086C010197E9F182E0C81652
:100EB000D104E9F0CD2809F460C0C253DF4F0FB66A
:100EC000F894DEBF0FBECDBFDF91CF911F910F9180
:100ED000FF90EF90DF90CF90BF90AF909F908F905A
:100EE0007F906F905F904F903F902F900895B80142
:100EF000CE0101960E94BD03B101CE0101960E9470
:100F0000A9080E947508BC01C7010E946A040E94DA
:100F100005096419750986099709683873418105BF
:100F20009105A8F3CACFB801CE0101960E94BD0376
:100F3000B101CE0101960E94A9080E9475085C01CA
:100F4000FC0101900020E9F73197CF018A199B0934
:100F50005C01B801CE0188599F4F0E94BD03B101C9
:100F6000CE0188599F4F0E94A9080E947508BC01B4
:100F70004A2DC7010E94EC04A0CFB801CE01019612
:100F80000E94BD03B101CE0101960E94A9080E94F2
:100F90007508BC01C7010E9492048FCFC8010E944E
:100FA000EB03892B09F04DC00E94050920E63AEEBB
:100FB00040E050E00E94E009B801CE01019620FD1A
:100FC00026C00E94BD0360E070E0CE0101960E9441
:100FD000A9080E9475084C01FC0101900020E9F766
:100FE0003197CF01881999094C01B801CE01885970
:100FF0009F4F0E94BD0360E070E0CE0188599F4F73
:101000000E94A9080E947508BC01482DB2CF0E9419
:10101000BD0361E070E0CE0101960E94A9080E9424
:101020007508BC01C7010E946A040E940509641981
:101030007509860997096838734181059105A8F3F8
:101040003CCF6CE071E0C7010E946A040E94050970
:1010500064197509860997096838734181059105F6
:10106000A8F32BCFFC0110820895FC0110820C9490
:10107000960A0F931F93CF93DF93EC018B0162E2EB
:1010800071E0C8010E948D0A892B29F481E090E06B
:1010900099A388A309C069E271E0C8010E948D0A82
:1010A000892B39F419A218A2DF91CF911F910F91CA
:1010B00008956FE271E0C8010E948D0A892BA1F7A3
:1010C00082E090E0E5CF0F931F93CF93DF93D82F6B
:1010D000C92F8A010E943508B8018D2F9C2FDF91FE
:1010E000CF911F910F910C9439080895FC0180A1B4
:1010F00091A10895CF93DF93EC010E943208CE01B5
:1011000082960E943208CE018C5B9F4F0E9432086B
:10111000CA59DF4F1882DF91CF910895CF93DF93A3
:10112000CDB7DEB7DC01FC01EA59FF4F808191E0C9
:10113000980F908392E28902A00DB11D112482E2E2
:10114000FE01359601900D928A95E1F7DF91CF91DE
:10115000089542E2469F9001479F300D1124820F6F
:10116000931F08950895FC01EA59FF4F8081082ECE
:10117000000C990B0895CF93C0917C0080917C0066
:10118000816080937C0080917A00876080937A00F0
:1011900080917A00806880937A0080917A008064E0
:1011A00080937A0080917A0086FDFCCF9091780040
:1011B00080917A00806480937A0080917A0086FD25
:1011C000FCCF809178000E94670A80917A008F7727
:1011D00080937A00C0937C00CF91089528E0FC01B1
:1011E00011922A95E9F7089548E050E00C947B0AA3
:1011F000089582E08093B00094E09093B1008093D2
:10120000700089EF8093B30008952FB7F894609130
:1012100036017091370180913801909139012FBFCB
:101220000895E4E6F0E080818F7B8083E0E7F0E0E2
:101230008081826080830895E0E7F0E080818D7F87
:101240008083E4E6F0E080818064808308958FB736
:10125000F8941092360110923701109238011092D2
:1012600039018FBF08950F931F938B019C014FB7D6
:10127000F8948091360190913701A0913801B09196
:101280003901800F911FA21FB31F809336019093E5
:101290003701A0933801B09339014FBF1F910F91CF
:1012A00008950F931F938B019C014FB7F894809181
:1012B000360190913701A0913801B0913901801B1E
:1012C000910BA20BB30B8093360190933701A0933F
:1012D0003801B09339014FBF1F910F9108951F92AC
:1012E0001FB61F9211248F939F93AF93BF9380914A
:1012F000360190913701A0913801B09139010196E2
:10130000A11DB11D8093360190933701A093380140
:10131000B0933901BF91AF919F918F911F901FBEE4
:101320001F901895CDB7DEB7C959D1090FB6F894FB
:10133000DEBF0FBECDBF0E94F90878948E010C5617
:101340001F4FC8010E946706C8010E94F905C80125
:101350000E942D040E9485027C016E0188E9C80E5E
:10136000D11CC6010E94B9010E94BB085801860128
:10137000A701B801CE0101960E94BF01BE016F5FB7
:101380007F4FC8010E944C02AC01BE016F5F7F4FCE
:10139000C5010E941607ECCF97FB072E16F40094A8
:1013A00007D077FD09D00E94020A07FC05D03EF461
:1013B000909581959F4F0895709561957F4F089501
:1013C000A1E21A2EAA1BBB1BFD010DC0AA1FBB1F49
:1013D000EE1FFF1FA217B307E407F50720F0A21BBB
:1013E000B30BE40BF50B661F771F881F991F1A9428
:1013F00069F760957095809590959B01AC01BD0152
:10140000CF010895AA1BBB1B51E107C0AA1FBB1F38
:10141000A617B70710F0A61BB70B881F991F5A9580
:10142000A9F780959095BC01CD0108958F929F9268
:10143000AF92BF92CF92DF92EF92FF92CF93DF9362
:10144000EC01688179818A819B8161157105810533
:10145000910521F464E279ED8BE597E02DE133EF1E
:1014600041E050E00E94A60A49015A019B01AC01EB
:10147000A7EAB1E40E94C50A6B017C01ACEEB4EFAF
:10148000A50194010E94D30ADC01CB018C0D9D1DA6
:10149000AE1DBF1DB7FF03C00197A109B0488883E7
:1014A0009983AA83BB839F77DF91CF91FF90EF90C1
:1014B000DF90CF90BF90AF909F908F9008950E9443
:1014C000160A089580E091E00E94160A0895A0E0AF
:1014D000B0E08093000190930101A0930201B093CA
:1014E00003010895FB01DC0102C005900D924150FB
:1014F0005040D8F708956817790768F4FB01DC01BC
:10150000E40FF51FA40FB51F02C002900E924150C8
:101510005040D8F708950C949D0AFB01DC018D9191
:10152000019080190110D9F3990B0895FB01DC019A
:1015300001900D920020E1F70895FB01DC0102C04B
:1015400001900D9241505040D8F70895052E97FB19
:101550001EF400940E94BD0A57FD07D00E94E009C6
:1015600007FC03D04EF40C94BD0A5095409530957D
:1015700021953F4F4F4F5F4F0895909580957095FF
:1015800061957F4F8F4F9F4F08950E94D80AA59F66
:10159000900DB49F900DA49F800D911D112408956E
:1015A000B7FF0C94C50A0E94C50A821B930B0895CD
:1015B000A29FB001B39FC001A39F700D811D112494
:1015C000911DB29F700D811D1124911D0895F894F5
:0215D000FFCF4B
:1015D20001000000556E6B6F776E0A00534F4D4548
:1015E2005448494E472057454E542057524F4E4774
:1015F20021007363726F6C6C00626C696E6B0070B9
:061602006C61696E00003E
:00000001FF
