:100000000C9434000C9449000C9449000C94490061
:100010000C9449000C9449000C9449000C9449003C
:100020000C9449000C9449000C9449000C9449002C
:100030000C9449000C9449000C9449000C9449001C
:100040000C9449000C9449000C9449000C9449000C
:100050000C9449000C9449000C9449000C944900FC
:100060000C9449000C94490011241FBECFEFD8E036
:10007000DEBFCDBF14E0A0E0B1E0EAEFFEE002C0D9
:1000800005900D92A432B107D9F70E9413060C9483
:100090007B070C9400002FEF3FEFFC01318320839E
:1000A00008950F931F93CF93DF938C01EA010E9471
:1000B000F806FE01E85BFF4F608171810E948406B3
:1000C00042E1489FF001499FF00D1124EC0FFD1F04
:1000D0008DB79EB742970FB6F8949EBF0FBE8DBFE7
:1000E000ADB7BEB7119682E101900D928A95E1F706
:1000F000C8010E9402068DB79EB742960FB6F894CB
:100100009EBF0FBE8DBFC801DF91CF911F910F9190
:100110000895CF92DF92EF92FF920F931F93CF93A8
:10012000DF938C01EB0189EEE82E83E0F82E6B0162
:100130008CE6C81A8DEFD80A0E94F806B7010E9413
:100140008406BC01F601408151819E0180E090E06F
:10015000841795078CF72C573F4FF901E256F109A8
:100160000190F081E02D6E177F077CF4F80120816B
:1001700031812817390701F3DF91CF911F910F913A
:10018000FF90EF90DF90CF9008950196E1CFCF924E
:10019000DF92EF92FF920F931F93CF93DF93CDB730
:1001A000DEB7C756D1090FB6F894DEBF0FBECDBF7C
:1001B0008C017A010E94F8066C01B701CE0101960C
:1001C0000E947002CE0101960E94BE05BC01C601CC
:1001D0000E9484066C01B701CE0101960E94700254
:1001E000B601CE0101960E94B405FC0182E2D8015D
:1001F00001900D928A95E1F7C801C959DF4F0FB6FA
:10020000F894DEBF0FBECDBFDF91CF911F910F914C
:10021000FF90EF90DF90CF900895AF92BF92CF9272
:10022000DF92EF92FF920F931F93CF93DF93CDB79F
:10023000DEB7C958D1090FB6F894DEBF0FBECDBFE7
:100240007C016B018A01BA01C6010E948900F60196
:100250009183808324E8289FF001299FF00D1124C9
:10026000E00FF11F8DB79EB7845891090FB6F8942F
:100270009EBF0FBE8DBFADB7BEB7119684E801908B
:100280000D928A95E1F7CE0101960E944B020FB6BE
:10029000F894DEBF0FBECDBFAE014F5F5F4FB6011A
:1002A000C7010E94C700C701C757DF4F0FB6F894B8
:1002B000DEBF0FBECDBFDF91CF911F910F91FF9099
:1002C000EF90DF90CF90BF90AF900895062E000C76
:1002D000770BFC01718360830895FC01808191811B
:1002E00008952AE932E0E4E0F1E0DC0101900D92AA
:1002F00021503040D9F70895FC0110820C94110769
:10030000CF93DF93EC0182960E94850560E074E054
:10031000CE01DF91CF910C947C01FC0171A360A30D
:100320000895AF92BF92CF92DF92EF92FF920F9318
:100330001F93CF93DF93CDB7DEB7C954D1090FB662
:10034000F894DEBF0FBECDBF5C018B016B01E12CC9
:10035000F12C20E030E080E090E0F80101900020F6
:10036000E9F73197E01BF10BEE16FF0690F0C75B43
:10037000DF4F0FB6F894DEBF0FBECDBFDF91CF9138
:100380001F910F91FF90EF90DF90CF90BF90AF90B3
:100390000895F60141916F014C32D1F021153105DC
:1003A00059F02130310589F02F5F3F4F80E090E018
:1003B000FFEFEF1AFF0AD1CFE3E2F0E0EC0FFD1FF1
:1003C000E80FF91F40830196F3CFE3E4F0E0F6CFA6
:1003D0002115310541F02130310571F02F5F3F4F7C
:1003E00080E090E0E5CFFE01E80FF91F13A280E066
:1003F00090E021E030E0DCCFFE01ED5BFF4FE80F45
:10040000F91F1082AE014D5B5F4FBE016D5D7F4FE6
:10041000CE0101960E946E058DB79EB782970FB6EA
:10042000F8949EBF0FBE8DBFADB7BEB7119682E2E6
:10043000FE01319601900D928A95E1F7C5018296F1
:100440000E9499050FB6F894DEBF0FBECDBF20E025
:1004500030E0C6CFCF92DF92EF92FF920F931F93BF
:10046000CF93DF93EC016B017A01890182960E94A0
:100470008505B601CE010E947C01E8A2F9A2B8016F
:10048000CE01DF91CF911F910F91FF90EF90DF9000
:10049000CF900C9491010F931F93CF93DF93CDB71F
:1004A000DEB78C0182960E948505BE01695F7F4F91
:1004B000C8010E947C018FA198A5F80191A380A397
:1004C000BE01655D7F4FC8010E949101DF91CF9110
:1004D0001F910F9108950895FC0180A191A10895A5
:1004E00027E6FB01B296DC0101900D922A95E1F717
:1004F000089560FF11C05C9A61FF10C05D9A62FFB1
:100500000FC05E9A63FF0EC05F9A599A85E08A9584
:10051000F1F70000599808955C98EECF5D98EFCF01
:100520005E98F0CF5F98F1CF1F93CF93DF93D82FD2
:10053000C92F162F62956F700E947902612F8D2F3F
:100540009C2F0E94790287EC90E00197F1F700C0A0
:100550000000DF91CF911F9108954295440F440F01
:10056000407C6058640F0C94940261E00E949402F5
:100570008FE39FE10197F1F700C00000089562E06A
:100580000E9494028FE39FE10197F1F700C0000001
:1005900008951F93CF93DF93D82FC92F162F6295FD
:1005A0006F700E947902612F8D2F9C2FDF91CF9168
:1005B0001F910C947902589A0E94C9025898089584
:1005C000EF92FF920F931F93CF93DF93182F092F72
:1005D000EB01E12CF12C8991811107C0DF91CF91C2
:1005E0001F910F91FF90EF90089580E1E816F104BC
:1005F00029F460EC812F902F0E949402FE016291F9
:10060000812F902F0E94DB028FEFE81AF80AE3CFC8
:10061000EF92FF920F931F93CF93DF93D82FC92FA1
:100620007B010AE010E0B7018D2F9C2F0E94E002B1
:100630002FEF84E39CE0215080409040E1F700C020
:1006400000008D2F9C2F0E94B5022FEF84E39CE0C9
:10065000215080409040E1F700C000000150104060
:1006600011F7DF91CF911F910F91FF90EF900895B7
:100670006F927F928F929F92AF92BF92CF92DF92B2
:10068000EF92FF920F931F93CF93DF93CDB7DEB717
:10069000A1970FB6F894DEBF0FBECDBF182F092F5C
:1006A0005B01CE0101967C0181E2F70111928A95EE
:1006B000E9F7612C712CC42ED12C4601F1E08F1A80
:1006C00091086C147D0480F0FFEF23E284EFF15079
:1006D00020408040E1F700C00000812C912C3701C0
:1006E0006C0C7D1C57014DC0862D2FEF621A720ACB
:1006F000D701982F8150F401E91BF10997FDF3957B
:10070000EA0DFB1D90819D938F3F99F7812F902FCC
:100710000E94B502B701812F902F0E94E0028FEF57
:1007200093ECE9E081509040E040E1F700C0000028
:10073000C8CF8981811118C0812F902FA1960FB643
:10074000F894DEBF0FBECDBFDF91CF911F910F9107
:10075000FF90EF90DF90CF90BF90AF909F908F90E1
:100760007F906F900C94B502F501818181935F01B8
:10077000812F902F0E94B502B701812F902F0E94E8
:10078000E002A614B704A9F6FFEF23EC89E0F150CC
:1007900020408040E1F700C000009FEF891A990ACD
:1007A000C814D90408F09ECFA1960FB6F894DEBF06
:1007B0000FBECDBFDF91CF911F910F91FF90EF90B2
:1007C000DF90CF90BF90AF909F908F907F906F9071
:1007D0000895CF92DF92EF92FF920F931F93CF93E2
:1007E000DF93CDB7DEB78C010E94B502CE010B9628
:1007F0000E9481057C01019709F182E0E816F1046D
:1008000059F0EF2899F1DF91CF911F910F91FF904F
:10081000EF90DF90CF900895CE010B960E94800557
:10082000BC01C8010E94E0029FEF23E284EF9150D7
:1008300020408040E1F700C00000E5CFCE010B96DC
:100840000E9480056C01FC0101900020E9F73197BE
:10085000CF018C199D096C01CE010B960E94800579
:10086000BC014C2DC8010E943803CDCFCE010B96A0
:100870000E948005BC01C8010E940803C4CFEF920A
:10088000FF920F931F93CF93DF938C017A01660F32
:10089000660F660F687360640E949402E701C701E7
:1008A00008967C016991C8010E94DB02CE15DF0524
:1008B000C9F7DF91CF911F910F91FF90EF900895AD
:1008C0000F931F93CF93DF93CDB7DEB7A0970FB6EB
:1008D000F894DEBF0FBECDBF8C01509A519A549A46
:1008E000559A569A579A8FE59AEE0197F1F700C0FC
:1008F000000063E0C8010E9479028FE19EE4019745
:10090000F1F700C0000063E0C8010E9479028FE89F
:1009100091E00197F1F700C0000063E0C8010E9478
:10092000790262E0C8010E94790268E2C8010E946F
:1009300094026CE0C8010E949402C8010E94B502B2
:1009400066E0C8010E94940295E89A95F1F70000CC
:1009500088E0EEE9F3E0DE01599601900D928A9568
:10096000E1F7AE01475E5F4F60E0C8010E943F04BF
:1009700088E0E8E0F4E0DE01519601900D928A955E
:10098000E1F7AE014F5E5F4F61E0C8010E943F0496
:1009900088E0E6EAF3E0DE01199601900D928A956F
:1009A000E1F7AE01475F5F4F62E0C8010E943F047C
:1009B00088E0EEEAF3E0DE01119601900D928A954F
:1009C000E1F7AE014F5F5F4F63E0C8010E943F0453
:1009D000A0960FB6F894DEBF0FBECDBFDF91CF91CA
:1009E0001F910F910895FC011182108213821282CF
:1009F0000C946004EF92FF920F931F93CF93DF93B9
:100A0000CDB7DEB7182F092FCE0109960E94120626
:100A1000AC0160E0812F902F0E943F04812F902F26
:100A20000E94B502E12CF12C60E0812F902F0E94F2
:100A3000DB0220E1E216F10449F460EC812F902FF3
:100A40000E94940281E1E82EF12CEECF8FEFE81A9C
:100A5000F80A91E2E916F10439F72FEF8BE792E9F2
:100A6000215080409040E1F700C00000DF91CF911D
:100A70001F910F91FF90EF900895FC01108208954F
:100A8000FC0110820C9411070F931F93CF93DF93F7
:100A9000EC018B0161E174E0C8010E940807892B19
:100AA00029F481E090E099A388A309C068E174E08B
:100AB000C8010E940807892B39F419A218A2DF91F6
:100AC000CF911F910F9108956EE174E0C8010E94CB
:100AD0000807892BA1F782E090E0E5CF0F931F93E1
:100AE000CF93DF93D82FC92F8A010E944005B80108
:100AF0008D2F9C2FDF91CF911F910F910C94440566
:100B00000895FC0180A191A10895CF93DF93EC019A
:100B10000E943D05CE0182960E943D05CE018C5B70
:100B20009F4F0E943D05CA59DF4F1882DF91CF9138
:100B30000895CF93DF93CDB7DEB7DC01FC01EA590E
:100B4000FF4F808191E0980F908392E28902A00D7F
:100B5000B11D112482E2FE01359601900D928A9515
:100B6000E1F7DF91CF91089542E2469F9001479FC0
:100B7000300D1124820F931F08950895FC01EA5946
:100B8000FF4F8081082E000C990B0895CF93C091E0
:100B90007C0080917C00816080937C0080917A0051
:100BA000876080937A0080917A00806880937A00D1
:100BB00080917A00806480937A0080917A0086FD2B
:100BC000FCCF9091780080917A00806480937A00C5
:100BD00080917A0086FDFCCF809178000E94FD060E
:100BE00080917A008F7780937A00C0937C00CF91B8
:100BF00008952AE4E6EBF3E0DC0101900D922A95DA
:100C0000E1F70895CF93DF93CDB7DEB7DE011F96EE
:100C1000FC0108962D912193E817F907D9F7DF9188
:100C2000CF9108950895CDB7DEB7CE51D3400FB61A
:100C3000F894DEBF0FBECDBF8E01075E1C4FC8010A
:100C40000E94F304C8010E946004C8010E94B5021A
:100C5000CE0101965C010E9471016E0195E6C91AF0
:100C60009DEFD90AC6010E94F9057E0183EEE81ABC
:100C70008CEFF80AC7010E944B000E94C605A5012F
:100C8000B701CE018B519D4F0E940D018DB79EB7CC
:100C900082970FB6F8949EBF0FBE8DBFADB7BEB79B
:100CA000119682E2FE01EB51FD4F01900D928A9563
:100CB000E1F7C8010E94E9030FB6F894DEBF0FBE4A
:100CC000CDBFA601B701CE01895F9C4F0E945100A4
:100CD0008DB79EB742970FB6F8949EBF0FBE8DBFDB
:100CE000ADB7BEB7119682E1FE01E95FFC4F0190FE
:100CF0000D928A95E1F7C8010E94FA040FB6F894A4
:100D0000DEBF0FBECDBFBBCF97FB072E16F40094FE
:100D100007D077FD09D00E94980607FC05D03EF465
:100D2000909581959F4F0895709561957F4F089597
:100D3000AA1BBB1B51E107C0AA1FBB1FA617B70701
:100D400010F0A61BB70B881F991F5A95A9F780951D
:100D50009095BC01CD0108958F929F92AF92BF9262
:100D6000CF92DF92EF92FF92CF93DF93EC016881F5
:100D700079818A819B81611571058105910521F435
:100D800064E279ED8BE597E02DE133EF41E050E04F
:100D90000E94180749015A019B01AC01A7EAB1E47E
:100DA0000E9437076B017C01ACEEB4EFA501940102
:100DB0000E944507DC01CB018C0D9D1DAE1DBF1DA2
:100DC000B7FF03C00197A109B04888839983AA831C
:100DD000BB839F77DF91CF91FF90EF90DF90CF9013
:100DE000BF90AF909F908F9008950E94AC06089599
:100DF00080E091E00E94AC060895A0E0B0E080930E
:100E0000000190930101A0930201B09303010895A2
:100E1000FB01DC018D91019080190110D9F3990B30
:100E20000895FB01DC0101900D920020E1F7089587
:100E3000052E97FB1EF400940E942F0757FD07D044
:100E40000E944A0707FC03D04EF40C942F075095DC
:100E50004095309521953F4F4F4F5F4F08959095A6
:100E60008095709561957F4F8F4F9F4F08950E9499
:100E70006C07A59F900DB49F900DA49F800D911DB0
:100E800011240895B7FF0C9437070E943707821B7F
:100E9000930B0895A1E21A2EAA1BBB1BFD010DC0E6
:100EA000AA1FBB1FEE1FFF1FA217B307E407F5071A
:100EB00020F0A21BB30BE40BF50B661F771F881FF6
:100EC000991F1A9469F760957095809590959B018C
:100ED000AC01BD01CF010895A29FB001B39FC00135
:100EE000A39F700D811D1124911DB29F700D811D56
:0A0EF0001124911D0895F894FFCF1E
:100EFA000100000048656465726C69676520486195
:100F0A00727279732042696C6172000000000000FD
:100F1A00000000008813580142757920796F7572B4
:100F2A00206361722066726F6D20486172727973F4
:100F3A002C7363726F6C6C2C4120676F6F64206432
:100F4A0065616C2028666F72204861727279292C5B
:100F5A00706C61696E2C48656465726C696765209E
:100F6A004861727279732042696C61722C626C6991
:100F7A006E6B2C00000000004661726D6F7220419A
:100F8A006E6B61732050616A6572204142000000F5
:100F9A000000000000000000B80B2702427579200B
:100FAA007069652066726F6D204772616D6D612090
:100FBA004475636B2C7363726F6C6C2C4875727218
:100FCA0079206265666F7265204D617274656E2064
:100FDA00656174732069742C706C61696E2C0000F1
:100FEA0000000000000000000000000000000000F7
:100FFA00000000000000000000000000537661724B
:10100A0074652050657474657273205376617274C6
:10101A0062796767656E000000000000DC058F02D8
:10102A004C657420506574746572206275696C64CD
:10103A0020666F7220796F752C7363726F6C6C2CDB
:10104A004E6F207461783F2043616C6C2050657448
:10105A00746572212C706C61696E2C0000000000AE
:10106A000000000000000000000000000000000076
:10107A000000000000000000000000000000000066
:10108A00476F6F6679277320446574656374697660
:10109A0065204167656E637900000000000000006A
:1010AA00A00FA3034D79737465726965733F20437A
:1010BA00616C6C20476F6F66792C706C61696E2C5D
:1010CA00476F6F6679206B69727220746865206257
:1010DA006966662C706C61696E2C00000000000065
:1010EA0000000000000000000000000000000000F6
:1010FA0000000000000000000000000000000000E6
:10110A0000000000437570657241647300000000BE
:10111A0000000000000000000000000000000000C5
:10112A0000000000E803E8034C6F6F6B696E6720EC
:10113A00746F206265207365656E3F2043616C6C35
:10114A00207573212C7363726F6C6C2C0000000085
:10115A000000000000000000000000000000000085
:10116A000000000000000000000000000000000075
:10117A000000000000000000000000000000000065
:10118A0000000000000000000500A4380000040070
:10119A000E010F110F00000C0A090A0C00000006CC
:1011AA000A120A0600004865617274000000000015
:1011BA0000000A15150A0400486F757365000000DF
:1011CA00000000040E1F0E0A0E0E536D696C65793D
:1011DA000000000000000A00110E00004C6F676F4B
:1011EA000000000000001D101D001705170504006F
:1011FA00556E6B6F776E0A001F110A04040A111FDD
:10120A00007363726F6C6C00626C696E6B00706C59
:04121A0061696E0098
:00000001FF
