:100000000C9434000C9451000C9451000C94510049
:100010000C9451000C9451000C9451000C9458070E
:100020000C9451000C9451000C9451000C9451000C
:100030000C9451000C9451000C9451000C945100FC
:100040000C9451000C9451000C9451000C945100EC
:100050000C9451000C9451000C9451000C945100DC
:100060000C9451000C94510011241FBECFEFD8E026
:10007000DEBFCDBF14E0A0E0B1E0EAE9F1E102C0EB
:1000800005900D92A230B107D9F724E0A2E0B4E0C8
:1000900001C01D92A630B207E1F70E947B070C94C5
:1000A000CB080C9400002FEF3FEFFC01318320833D
:1000B0000895AF92BF92CF92DF92EF92FF920F938B
:1000C0001F93CF93DF93D82FC92F8B015A0189EE4D
:1000D000E82E83E0F82E6A0124E4C21A2DEFD20A3A
:1000E0000E942D08B7010E94B907F6016081718155
:1000F000A50120E030E02617370794F744575F4FFB
:10010000FA01EA56F1090190F081E02D8E179F0760
:10011000D4F5F801808191818217930709F3318327
:1001200020838CE8829FF001839FF00D1124EA0D5B
:10013000FB1D2DB73EB72C5831090FB6F8943EBFC2
:100140000FBE2DBFADB7BEB7119601900D928A9527
:10015000E1F78D2F9C2F0E94E3018DB79EB7845746
:100160009F4F0FB6F8949EBF0FBE8DBF8D2F9C2F53
:10017000DF91CF911F910F91FF90EF90DF90CF9083
:10018000BF90AF9008952F5F3F4FB5CFEF92FF9292
:100190000F931F93CF93DF93CDB7DEB7C756D10927
:1001A0000FB6F894DEBF0FBECDBF7B010E942D08B5
:1001B0008C01B701CE0101960E942E02CE0101965C
:1001C0000E949C06BC01C8010E94B907C959DF4FB3
:1001D0000FB6F894DEBF0FBECDBFDF91CF911F9158
:1001E0000F91FF90EF900895062E000C770BFC0105
:1001F000718360830895FC0180819181089522ECD0
:1002000032E0E4E0F1E0DC0101900D922150304059
:10021000D9F70895FC0110820C945808CF93DF930E
:10022000EC0182960E946306CE0187579F4F0E9481
:10023000D7066EED73E0CE01DF91CF910C940A01E9
:10024000FC0171A360A30895AF92BF92CF92DF9299
:10025000EF92FF920F931F93CF93DF93CDB7DEB74B
:10026000C954D1090FB6F894DEBF0FBECDBF5C01F3
:100270008B016B01E12CF12C20E030E080E090E07C
:10028000F80101900020E9F73197E01BF10BEE1621
:10029000FF0690F0C75BDF4F0FB6F894DEBF0FBECE
:1002A000CDBFDF91CF911F910F91FF90EF90DF9025
:1002B000CF90BF90AF900895F60141916F014C32FD
:1002C000D1F02115310559F02130310589F02F5F2A
:1002D0003F4F80E090E0FFEFEF1AFF0AD1CFE3E25B
:1002E000F0E0EC0FFD1FE80FF91F40830196F3CFFC
:1002F000E3E4F0E0F6CF2115310541F0213031057E
:1003000071F02F5F3F4F80E090E0E5CFFE01E80FF6
:10031000F91F13A280E090E021E030E0DCCFFE0185
:10032000ED5BFF4FE80FF91F1082AE014D5B5F4F91
:10033000BE016D5D7F4FCE0101960E944C068DB7C8
:100340009EB782970FB6F8949EBF0FBE8DBFADB714
:10035000BEB7119682E2FE01319601900D928A9508
:10036000E1F7C50182960E9477060FB6F894DEBFCA
:100370000FBECDBF20E030E0C6CFCF92DF92EF922C
:10038000FF920F931F93CF93DF93EC016B017A01E0
:10039000890182960E946306CE0187579F4F0E9473
:1003A000D706B601CE010E940A01E8A2F9A2B8015F
:1003B000CE01DF91CF911F910F91FF90EF90DF90D1
:1003C000CF900C942401EF92FF920F931F93CF9341
:1003D000DF93CDB7DEB728970FB6F894DEBF0FBE18
:1003E000CDBF8C0182960E946306780189E8E80EF1
:1003F000F11CC7010E94D706BE016F5E7F4FC80186
:100400000E940A0189A99AA9F80191A380A3BE01BB
:100410006B5C7F4FC8010E942401BE016B567F4F69
:10042000CE0101960E94DD0688E0FE013196D701DB
:1004300001900D928A95E1F728960FB6F894DEBFE9
:100440000FBECDBFDF91CF911F910F91FF90EF9025
:1004500008950895FC0180A191A1089527E6FB016C
:10046000B296DC0101900D922A95E1F70895CF93A1
:10047000DF93CDB7DEB728970FB6F894DEBF0FBE77
:10048000CDBFFC01E757FF4F88E0DE0111960190D8
:100490000D928A95E1F729813A814B815C816D81CA
:1004A0007E818F81988528960FB6F894DEBF0FBEA7
:1004B000CDBFDF91CF91089560FF11C05C9A61FFBD
:1004C00010C05D9A62FF0FC05E9A63FF0EC05F9A14
:1004D000599A85E08A95F1F70000599808955C983B
:1004E000EECF5D98EFCF5E98F0CF5F98F1CF1F937E
:1004F000CF93DF93D82FC92F162F62956F700E946C
:100500005C02612F8D2F9C2F0E945C0287EC90E093
:100510000197F1F700C00000DF91CF911F9108957E
:100520004295440F440F407C6058640F0C9477024E
:1005300061E00E9477028FE39FE10197F1F700C02D
:100540000000089562E00E9477028FE39FE1019727
:10055000F1F700C0000008951F93CF93DF93D82FC9
:10056000C92F162F62956F700E945C02612F8D2F2C
:100570009C2FDF91CF911F910C945C02589A0E949E
:10058000AC0258980895EF92FF920F931F93CF9368
:10059000DF93182F092FEB01E12CF12C89918111A8
:1005A00007C0DF91CF911F910F91FF90EF900895B9
:1005B00080E1E816F10429F460EC812F902F0E946D
:1005C0007702FE016291812F902F0E94BE028FEF71
:1005D000E81AF80AE3CFCF92DF92EF92FF920F93DF
:1005E0001F93CF93DF93EC01162F072F0E94EE0687
:1005F0006B017C010E94EE066C197D098E099F0932
:10060000603177428105910548F0DF91CF911F91CC
:100610000F91FF90EF90DF90CF900895612F702F92
:10062000CE010E94C3022FEF84E39CE02150804062
:100630009040E1F700C00000CE010E9498022FEF29
:1006400084E39CE0215080409040E1F700C000002E
:10065000D1CF2F923F924F925F926F927F928F9263
:100660009F92AF92BF92CF92DF92EF92FF920F9341
:100670001F93CF93DF93CDB7DEB7AB970FB6F89448
:10068000DEBF0FBECDBF8AA39BA38B01942E0E9419
:10069000EE066B017C010E94EE069E012F5F3F4F2C
:1006A000590181E2F90111928A95E9F7812C292DEE
:1006B0002150330B190189102FC00E94EE062B0127
:1006C0003C010E94EE066C197D098E099F09693B69
:1006D0007B408105910508F04FC048E8C40E43E116
:1006E000D41EE11CF11CC418D508E608F708CC0C90
:1006F000DD1CEE1CFF1C0E94EE06641975098609BC
:1007000097096C157D058E059F05A8F3812C650161
:10071000C90CD11C750168C0882DD501E82F815006
:10072000A1014E1B5109E7FD5395FA01E00FF11F9E
:1007300090819D938F3F91F78AA19BA10E9498027F
:10074000B5018AA19BA10E94C3020E94EE0668A780
:1007500079A78AA79BA70E94EE0628A539A54AA5D6
:100760005BA5621B730B840B950B643671058105C9
:10077000910588F383949FCF0E94EE066419750952
:1007800086099709603D774081059105A8F3BECFA2
:10079000898181111CC08AA19BA1AB960FB6F894E8
:1007A000DEBF0FBECDBFDF91CF911F910F91FF90A4
:1007B000EF90DF90CF90BF90AF909F908F907F9001
:1007C0006F905F904F903F902F900C949802F7019C
:1007D000818181937F018AA19BA10E949802B5012A
:1007E0008AA19BA10E94C302CE14DF0489F60E9455
:1007F000EE066CA37DA38EA39FA30E94EE062CA100
:100800003DA14EA15FA1621B730B840B950B643657
:1008100071058105910588F381E0880D981411F028
:10082000882E78CFAB960FB6F894DEBF0FBECDBF43
:10083000DF91CF911F910F91FF90EF90DF90CF90BC
:10084000BF90AF909F908F907F906F905F904F90F0
:100850003F902F900895EF92FF920F931F93CF93A5
:10086000DF938C017A01660F660F660F6873606410
:100870000E947702E701C70108967C016991C801CF
:100880000E94BE02CE15DF05C9F7DF91CF911F91FF
:100890000F91FF90EF9008950F931F93CF93DF93E5
:1008A000CDB7DEB7A0970FB6F894DEBF0FBECDBFB1
:1008B0008C01509A519A549A559A569A579A8FE5A4
:1008C0009AEE0197F1F700C0000063E0C8010E94B2
:1008D0005C028FE19EE40197F1F700C0000063E045
:1008E000C8010E945C028FE891E00197F1F700C017
:1008F000000063E0C8010E945C0262E0C8010E943F
:100900005C0268E2C8010E9477026CE0C8010E94A4
:100910007702C8010E94980266E0C8010E9477022F
:1009200095E89A95F1F7000088E0E6ECF3E0DE0147
:10093000599601900D928A95E1F7AE01475E5F4F9F
:1009400060E0C8010E942B0488E0E6EEF3E0DE01DF
:10095000519601900D928A95E1F7AE014F5E5F4F7F
:1009600061E0C8010E942B0488E0EEECF3E0DE01B8
:10097000199601900D928A95E1F7AE01475F5F4F9E
:1009800062E0C8010E942B0488E0E6EDF3E0DE019E
:10099000119601900D928A95E1F7AE014F5F5F4F7E
:1009A00063E0C8010E942B04A0960FB6F894DEBF46
:1009B0000FBECDBFDF91CF911F910F910895FC0124
:1009C00011821082138212820C944C044F925F9217
:1009D0006F927F92AF92BF92CF92DF92EF92FF928F
:1009E0000F931F93CF93DF93CDB7DEB728970FB642
:1009F000F894DEBF0FBECDBF8C01D62EC72E862F3A
:100A0000972F0E94370229833A834B835C836D833F
:100A10007E838F839887CE0101960E94E106AC0108
:100A200060E0C8010E942B04C8010E94980260E0A7
:100A3000C8010E94BE02E12CF12C8D2D9C2D0E943C
:100A40002902FC0101900020E9F73197E81BF90B1E
:100A5000EE16FF06D0F480E2E816F104B1F02FE0C4
:100A6000E21204C060ECC8010E9477028D2D9C2D1B
:100A70000E942902FC01EE0DFF1D6081C8010E9449
:100A8000BE022FEFE21AF20AD8CF60E0C8010E943E
:100A9000BE020E94EE062B013C010E94EE06641984
:100AA000750986099709683B7B4081059105A8F384
:100AB00028960FB6F894DEBF0FBECDBFDF91CF9161
:100AC0001F910F91FF90EF90DF90CF90BF90AF906C
:100AD0007F906F905F904F9008954F925F926F92CA
:100AE0007F928F929F92AF92BF92CF92DF92EF92BE
:100AF000FF920F931F93CF93DF93CDB7DEB7CE5CFA
:100B0000D1090FB6F894DEBF0FBECDBF8C017B01BB
:100B10006A010E949802B701C8010E94E604C80158
:100B20000E9498020E94EE062B013C01B701CE0103
:100B300001960E942E02B601CE0101960E949206F5
:100B40000E945F065C010197D9F182E0A816B1040A
:100B5000D9F0AB2809F45EC0C253DF4F0FB6F8944A
:100B6000DEBF0FBECDBFDF91CF911F910F91FF90E0
:100B7000EF90DF90CF90BF90AF909F908F907F903D
:100B80006F905F904F900895B701CE0101960E943B
:100B90002E02B601CE0101960E9492060E945E06C8
:100BA000BC01C8010E94C3020E94EE0664197509C7
:100BB000860997096031774281059105A8F3CCCF6A
:100BC000B701CE0101960E942E02B601CE01019618
:100BD0000E9492060E945E064C01FC0101900020DA
:100BE000E9F73197CF01881999094C01B701CE0176
:100BF00088599F4F0E942E02B601CE0188599F4FFF
:100C00000E9492060E945E06BC01482DC8010E9407
:100C10002903A2CFB701CE0101960E942E02B60190
:100C2000CE0101960E9492060E945E06BC01C80198
:100C30000E94EB0291CFFC0110820895FC0110820A
:100C40000C9458080F931F93CF93DF93EC018B0103
:100C50006FEE73E0C8010E944F08892B29F481E0F0
:100C600090E099A388A309C066EF73E0C8010E94D1
:100C70004F08892B39F419A218A2DF91CF911F9147
:100C80000F9108956CEF73E0C8010E944F08892B03
:100C9000A1F782E090E0E5CF0F931F93CF93DF930E
:100CA000D82FC92F8A010E941E06B8018D2F9C2FB4
:100CB000DF91CF911F910F910C9422060895FC01B2
:100CC00080A191A10895CF93DF93EC010E941B06B0
:100CD000CE0182960E941B06CE018C5B9F4F0E9424
:100CE0001B06CA59DF4F1882DF91CF910895CF9329
:100CF000DF93CDB7DEB7DC01FC01EA59FF4F8081FD
:100D000091E0980F908392E28902A00DB11D112409
:100D100082E2FE01359601900D928A95E1F7DF910E
:100D2000CF91089542E2469F9001479F300D1124D4
:100D3000820F931F08950895FC01EA59FF4F8081A7
:100D4000082E000C990B0895CF93C0917C008091E0
:100D50007C00816080937C0080917A008760809322
:100D60007A0080917A00806880937A0080917A007E
:100D7000806480937A0080917A0086FDFCCF909108
:100D8000780080917A00806480937A0080917A0064
:100D900086FDFCCF809178000E94320880917A0015
:100DA0008F7780937A00C0937C00CF91089528E0DC
:100DB000FC0111922A95E9F7089548E050E00C945F
:100DC0003D08089582E08093B00094E09093B100D4
:100DD0008093700089EF8093B30008952FB7F89443
:100DE00060910204709103048091040490910504C1
:100DF0002FBF0895E4E6F0E080818F7B8083E0E7F9
:100E0000F0E08081826080830895E0E7F0E08081F7
:100E10008D7F8083E4E6F0E08081806480830895A4
:100E20008FB7F894109202041092030410920404F5
:100E3000109205048FBF08950F931F938B019C019F
:100E40004FB7F8948091020490910304A091040498
:100E5000B0910504800F911FA21FB31F809302045D
:100E600090930304A0930404B09305044FBF1F9113
:100E70000F9108950F931F938B019C014FB7F89426
:100E80008091020490910304A0910404B0910504A0
:100E9000801B910BA20BB30B80930204909303046D
:100EA000A0930404B09305044FBF1F910F910895C0
:100EB0001F921FB61F9211248F939F93AF93BF93DE
:100EC0008091020490910304A0910404B091050460
:100ED0000196A11DB11D8093020490930304A09379
:100EE0000404B0930504BF91AF919F918F911F901F
:100EF0001FBE1F901895CDB7DEB7C955D3400FB6AA
:100F0000F894DEBF0FBECDBF0E94E20678948E013A
:100F10000C5A1C4FC8010E94DF04C8010E944C04F7
:100F2000C8010E949802CE0101966C010E94FF0048
:100F30007E0198EAE91A9CEFF90AC7010E94530062
:100F40000E94A40658018701A601B801CE018D5365
:100F50009D4F0E945900BE016D537D4FC8010E94F4
:100F6000C600AC01BE016D537D4FC5010E946D05E9
:100F7000EBCF97FB072E16F4009407D077FD09D02E
:100F80000E94CD0707FC05D03EF4909581959F4FB8
:100F90000895709561957F4F0895AA1BBB1B51E181
:100FA00007C0AA1FBB1FA617B70710F0A61BB70BD9
:100FB000881F991F5A95A9F780959095BC01CD017E
:100FC00008958F929F92AF92BF92CF92DF92EF924D
:100FD000FF92CF93DF93EC01688179818A819B81B5
:100FE000611571058105910521F464E279ED8BE5C8
:100FF00097E02DE133EF41E050E00E94680849019D
:101000005A019B01AC01A7EAB1E40E9487086B0179
:101010007C01ACEEB4EFA50194010E949508DC01BF
:10102000CB018C0D9D1DAE1DBF1DB7FF03C00197E9
:10103000A109B04888839983AA83BB839F77DF91F6
:10104000CF91FF90EF90DF90CF90BF90AF909F90A7
:101050008F9008950E94E107089580E091E00E943A
:10106000E1070895A0E0B0E08093000190930101B2
:10107000A0930201B093030108956817790768F4FB
:10108000FB01DC01E40FF51FA40FB51F02C00290A5
:101090000E9241505040D8F708950C945F08FB0120
:1010A000DC018D91019080190110D9F3990B0895FD
:1010B000FB01DC0101900D920020E1F70895FB0196
:1010C000DC0102C001900D9241505040D8F70895C4
:1010D000052E97FB1EF400940E947F0857FD07D051
:1010E0000E949A0807FC03D04EF40C947F08509598
:1010F0004095309521953F4F4F4F5F4F0895909504
:101100008095709561957F4F8F4F9F4F08950E94F6
:10111000BC08A59F900DB49F900DA49F800D911DBC
:1011200011240895B7FF0C9487080E948708821B3A
:10113000930B0895A1E21A2EAA1BBB1BFD010DC043
:10114000AA1FBB1FEE1FFF1FA217B307E407F50777
:1011500020F0A21BB30BE40BF50B661F771F881F53
:10116000991F1A9469F760957095809590959B01E9
:10117000AC01BD01CF010895A29FB001B39FC00192
:10118000A39F700D811D1124911DB29F700D811DB3
:0A1190001124911D0895F894FFCF7B
:10119A000100000048454445524C49474520484112
:1011AA00525259532042494C4152204142000000B8
:1011BA00000000008813580142555920594F5552D2
:1011CA00204341522046524F4D20484152525953D2
:1011DA002C7363726F6C6C2C4120474F4F44204430
:1011EA0045414C2028464F52204841525259292CF9
:1011FA00706C61696E2C47495645204D4520594F00
:10120A005552204D4F4E41592C626C696E6B2C0021
:10121A0000000000000000000A1F101F011F0A0042
:10122A004752414D4D59204455434B27532050496D
:10123A004553204142000000000000000000000069
:10124A00B80B2702425559205049452046524F4D66
:10125A00204752414D4D59204455434B2C736372DC
:10126A006F6C6C2C4D414B494E472050454F504CAA
:10127A004520464C4F41542053494E43452031396D
:10128A0036342C706C61696E2C000000000000007E
:10129A000000000000000000000000000000000044
:1012AA000000000004120912001F110E5045545488
:1012BA00455227532048414E44594D414E20414200
:1012CA00000000000000000000000000DC058F02A2
:1012DA004C45542042455454455220444F205448CA
:1012EA0045204255494C44494E472C7363726F6CF2
:1012FA006C2C4E4F572054415846524545212043A5
:10130A00414C4C2050455454455220544F44415965
:10131A002C706C61696E2C00000000000000000057
:10132A0000000000000000000000000000000000B3
:10133A0000010F1504040404474F4F465920444541
:10134A0054454354495645204147454E4359204147
:10135A004200000000000000A00FA3034D5953549F
:10136A0045524945533F2043414C4C20474F4F4635
:10137A0059212C706C61696E2C474F4F4659204B8E
:10138A004952522054484520424946462C706C61C5
:10139A00696E2C0000000000000000000000000040
:1013AA000000000000000000000000000000000033
:1013BA000000000000000000000000000E111111E2
:1013CA000E040201435550455241445300000000A7
:1013DA000000000000000000000000000000000003
:1013EA0000000000E803E8034C4F4F4B494E4720EA
:1013FA00544F204245205345454E3F2043414C4CD3
:10140A00205553212C7363726F6C6C2C0000000002
:10141A0000000000000000000000000000000000C2
:10142A0000000000000000000000000000000000B2
:10143A0000000000000000000000000000000000A2
:10144A0000000000000000001D101D001705170510
:10145A000500A438000004000E010F110F00000C53
:10146A000A090A0C000000060A120A060000556E54
:10147A006B6F776E0A001F110A04040A111F0073AA
:10148A0063726F6C6C00626C696E6B00706C616980
:02149A006E00E2
:00000001FF
